:020000040800F2
:100000007830002045010008A91300080F020008FD
:10001000A5130008E90700082322000800000000DB
:10002000000000000000000000000000D1160008E1
:10003000130F00080000000097010008BD1700081A
:100040005F0100085F0100085F0100085F01000810
:100050005F0100085F0100085F0100085F01000800
:10006000150F00085F0100085F010008A10A0008E1
:100070005F0100085F0100085F0100085F010008E0
:100080005F0100085F0100085F0100085F010008D0
:100090005F0100085F0100085F0100085F010008C0
:1000A0005F0100085F0100085F0100085F010008B0
:1000B0005F010008D11800085F0100085F01000817
:1000C0005F0100085F0100085F0100085F01000890
:1000D0005F010008192000085F0100085F010008A7
:1000E0005F0100085F0100085F0100085F01000870
:1000F0005F0100085F0100085F0100085F01000860
:100100005F0100085F0100085F0100085F0100084F
:100110005F0100085F0100085F0100085F0100083F
:100120005F0100085F0100085F0100085F0100082F
:10013000DFF80CD000F0EEF8004800478F0300080D
:10014000783000200648804706480047FEE7FEE773
:10015000FEE7FEE7FEE7FEE7FEE7FEE7FEE7FEE777
:100160007118000831010008EFF3108072B6704773
:1001700080F310887047334A1368012B04D04FF086
:1001800001031360304A1060304A116030484FF06C
:10019000805101607047EFF3108272B62948016800
:1001A00091B14FF0000101602748016829B1EFF3D8
:1001B000098121E9F00F0068016024490968096894
:1001C000B1E8F00F81F3098882F310884EF0040E35
:1001D00070471E4908601C494FF00000086019492B
:1001E0004FF0010008601B484FF47F01D0F8002059
:1001F00041EA0201016016484FF080510160164843
:100200000068006880F3088861B662B670471EF027
:10021000040F0CBFEFF30880EFF3098020E9F00F23
:1002200040F804ED1EF0040F0CBF80F3088880F343
:10023000098800B504F062FA5DF804EB4EF0040E94
:1002400070470000F4020020EC020020F0020020C1
:1002500004ED00E020ED00E008ED00E040EA0103DD
:100260009B0703D009E008C9121F08C0042AFAD26C
:1002700003E011F8013B00F8013B521EF9D2704730
:10028000D2B201E000F8012B491EFBD270470022D8
:10029000F6E710B513460A4604461946FFF7F0FF85
:1002A000204610BD421E12F8013F002BFBD111F871
:1002B000013B02F8013B002BF9D1704710B5044611
:1002C00004E00B7800F8013B03B1491C521EF8D240
:1002D000204610BD421C10F8011B0029FBD1801ADA
:1002E0007047034611F8012B00F8012B002AF9D1C1
:1002F0001846704730B505460020034600E05B1CF9
:10030000934205D2EC5CC85C201A01D1002CF6D1D6
:1003100030BD0000064C074D06E0E06840F00103E8
:1003200094E8070098471034AC42F6D3FFF704FF77
:10033000706500089065000870B58C1810F8015BB6
:1003400015F0070301D110F8013B2A1106D110F86E
:10035000012B03E010F8016B01F8016B5B1EF9D172
:100360002B0705D40023521E0DD401F8013BFAE7F8
:1003700010F8013BCB1A921C03E013F8015B01F863
:10038000015B521EF9D5A142D8D3002070BD10B533
:1003900005F0DAFD002010BD38B500F039F900F0A5
:1003A0005FF800F0C5F800200A23074A07A1009073
:1003B000084804F077FC04461CB107A004F04AFB8F
:1003C00038BD00BFFCE70000E02000206D625F61E7
:1003D00064630000A8200020696E69742061646372
:1003E000206D61696C626F78206661696C65640A72
:1003F0000000000010B5FFF7CFFF002010BDF0B5E2
:1004000003460C4600250021002700260A2A01DDAC
:100410000220F0BD002106E003EB011030F81400CB
:100420000544481C81B29142F6DBB5FBF2F086B27E
:100430003046EEE721B1826842F00102826003E0BB
:10044000826822F001028260704721B1826842F422
:100450008072826003E0826822F48072826070475A
:1004600000B58DB00121084601F078F8104800F081
:100470006DFC4FF4C06000F0D1FF2C220D4902A8A2
:10048000FFF7ECFE02A90A4800F025FD09482C30D0
:100490000068019001A800F089FF012202210448B0
:1004A00000F010FD0121024800F044FC0DB000BD39
:1004B00008000240C0610008014600208A6802F07E
:1004C00004020AB1012000E000207047014600202C
:1004D0008A6802F008020AB1012000E0002070479B
:1004E00030B502460020002350680F4C20400D79A3
:1004F0000C6844EA05242043506090680B4C20406F
:10050000D1E902542C434D7944EA450420439060DC
:10051000D06A20F470000C7C641EE4B2234340EAED
:100520000350D06230BD0000FFFEF0FFFDF7F1FF89
:1005300000B585B04FF4004001F004F801214802F5
:1005400001F03CF80020009001208DF804008DF8A7
:1005500005004FF4602002900020039008208DF8E1
:10056000100069462948FFF7BBFF0523012200213F
:10057000264800F05FF8052302220121234800F0FD
:1005800059F8052303220221204800F053F80523DF
:10059000042203211D4800F04DF805231A460421CA
:1005A0001A4800F047F8052306221946174800F0BC
:1005B00041F8052307220621144800F03BF80523E3
:1005C00008220721114800F035F801210F48FFF7F4
:1005D0003CFF01210D48FFF72DFF0C4800F086F885
:1005E00000BF0A48FFF772FF0028FAD1074800F061
:1005F0008DF800BF0548FFF75FFF0028FAD1012101
:10060000024800F078F805B000BD00000024014069
:1006100008B50121042000F0D1FFFF20ADF8000053
:1006200000208DF803006946014800F0FDFC08BD7C
:1006300000080140F0B504460D4600200021092DB8
:1006400011DDE068A5F10A0606EB4607072606FA63
:1006500007F18843A5F10A0606EB460603FA06F100
:100660000843E0600CE0206905EB4507072606FA21
:1006700007F1884305EB450603FA06F108432061BC
:10068000072A0FDA606B561E06EB86071F2606FA4E
:1006900007F18843561E06EB860605FA06F1084365
:1006A000606322E00D2A0FDA206BD61F06EB860767
:1006B0001F2606FA07F18843D61F06EB860605FAC1
:1006C00006F10843206310E0E06AA2F10D0606EB94
:1006D00086071F2606FA07F18843A2F10D0606EBEE
:1006E000860605FA06F10843E062F0BD816841F034
:1006F00008018160704721B1826842F4A0028260E3
:1007000003E0826822F4A00282607047816841F0B1
:10071000040181607047000070B505460E46002454
:100720002D4800780A2828DA00BF09E036F81400BE
:100730002949097805EB011121F81400601CC4B2A5
:10074000082CF3DB24480078401C23490870084635
:1007500000780A283FD1002409E0082221462846D3
:10076000FFF74DFE1D4921F81400601CC4B2082C8F
:10077000F3DB01201A4908702DE01A4800780A2896
:1007800026DA002409E036F814001649097805EB4A
:10079000011121F81400601CC4B2082CF3DB002402
:1007A00009E0082221462846FFF729FE0B4921F8D7
:1007B0001400601CC4B2082CF3DB0A480078401C0B
:1007C00008490870084600780A2801D100200870FE
:1007D00001200349087070BD66000020C41F00207E
:1007E000310000206700002000BFFEE70A480B49E7
:1007F0000860002008710A204871002088714FF4B9
:100800007A700881002088720220C8720120087363
:1008100003204873704700008D13000868220020F1
:1008200010B54FF4F8702A4948802A48808801287A
:100830004DD10846007C012823D10846007DD0B95F
:100840000846C0884988884211DA2148008840F269
:10085000F621884207DA1E480088401C1C4908809F
:10086000088805F087FB00201949887403E00120FF
:100870001749887408751648C18817A004F0EAF86B
:1008800022E01348007C02281ED11148007DD8B90F
:100890000F4800890E494988884211DA0C480088BF
:1008A00040F2F621884207DA09480088401C0849CE
:1008B0000880088805F05EFB00200549887403E085
:1008C000012003498874087500200249888010BD02
:1008D000180000203C130020636872675F63747225
:1008E0006C5F6F626A2E495F4368616E6E656C3142
:1008F00020203D202564200A0000000004E000F0D4
:1009000029F8142004F066FFF9E700001FB5142051
:1009100004218A01074BCDE90032CDE90210002302
:10092000054A06A10A4804F03BFF094804F0A2FF6B
:100930001FBD0000C41E0020FD08000843485247A8
:100940005F4354524C5F746872656164000000003C
:10095000341E002010B50C48007810B901F076FF65
:1009600010E00948007801280CD10848407C042890
:1009700002D100F09DFD05E00448407C052801D12E
:10098000FFF74EFF10BD00001400002018000020EB
:1009900030B58DB005460C4609A801F0DDFA05A872
:1009A00001F079FA0121C80200F008FE01210820B7
:1009B00000F004FE0121082000F000FE4FF400507A
:1009C000ADF8300018208DF8330003208DF8320088
:1009D0000CA9304800F028FB4FF48070ADF83000CF
:1009E00018208DF8330003208DF832000CA92A4816
:1009F00000F01AFBADF82850ADF824404FF4007019
:100A0000ADF82A000020ADF8260009A9234801F01E
:100A100051FA0020ADF80400ADF80600ADF808006A
:100A2000ADF80A00ADF80C00ADF80E004FF48040B0
:100A3000ADF8100001A9194800F08CFF05A801F0DD
:100A40002AFA7020ADF814000420ADF81800012037
:100A5000ADF816000020ADF81C00ADF81E00ADF892
:100A60002000ADF8220005A90C4801F0B9F80821D2
:100A70000A4801F001F909484430008840F01000AC
:100A80000649443108800121044800F057FF0DB0A9
:100A900030BD0000000C014000080140002C014066
:100AA00010B5022000F0F8F900287DD089498A4865
:100AB000FFF732FE89480088012804D18848006881
:100AC000401C874908608748008890B90020844905
:100AD000086082490880844908800421834800F026
:100AE00077FB002804D101207E4908807B490880DB
:100AF000ECE07C480088012811D17948006844F670
:100B000020618842F4D30421784800F061FB00287A
:100B1000EED103F0A9FA022072490880D6E07148AC
:100B20000088022830D16E480068B0F5FA4FDFD354
:100B30006F480078012821D16E48008840F20641B4
:100B4000884208DA03F082FA6B4800F0A5FC002026
:100B50006449088012E06748008840F229518842C1
:100B600006DC654800F08AFC03205E49088005E049
:100B7000614800F083FC03205A490880002057494F
:100B8000088057490860A1E0564800880328AFD183
:100B90005A48407C04283BD15848C07C58BB584830
:100BA0000088012826DB00E093E04F48408898B990
:100BB000484801894C480288801D20F81210454899
:100BC00081894948028800F2EE3020F81210464828
:100BD0000088401C4449088049480088022865DB99
:100BE0000120414948800421464803F026FC0020AA
:100BF000434908805AE04148C07C012856D140480A
:100C00000088012852DB4FF4F87001F047FE4DE0F8
:100C10003A48407C052849D13848007DE8BB38482F
:100C20000088012842DB38480088401C364908808B
:100C3000284801892C480288801D20F81210254878
:100C400081892948028800F2EE3020F812102648E7
:100C50000088401C2449088008460288801D30F81E
:100C600012102AA003F0F6FE1F480088B0F5F97FA5
:100C700004DD00201C4908802149088020480088A4
:100C8000022813DB00201E4908801F49088001202C
:100C90001549488004211B4800E002E003F0CDFB29
:100CA00004E01648007D012800D100BF11480088EB
:100CB00040F20641884208DA03F0C8F90E4800F015
:100CC000EBFB00200749088000E000BF022000F095
:100CD00023F810BDD41F0020E41F0020780000205E
:100CE000740000205C0000203C130020000C014038
:100CF00031000020C41F0020002C014018000020FB
:100D000084000020141300207A00002049203D2098
:100D10002564200A0000000000F0805111B1034951
:100D2000086001E002494860704700000404024086
:100D30000000024021B1026842F00102026004E0BA
:100D400002684FF6FE731A400260704701684FF662
:100D5000FE72114001600021016041608160C1604C
:100D60004B49884208D14A490839496841F00F0186
:100D7000474A083A51608AE045491431884208D10F
:100D800043490839496841F0F001414A083A516045
:100D90007DE03F492831884208D13D4908394968FA
:100DA00041F470613A4A083A516070E038493C3188
:100DB000884208D136490839496841F47041344ABB
:100DC000083A516063E032495031884208D13049D5
:100DD0000839496841F470212D4A083A516056E0BB
:100DE0002B496431884208D129490839496841F4BE
:100DF0007001274A083A516049E025497831884214
:100E000008D123490839496841F07061204A083AFD
:100E100051603CE01F49884206D1011F096841F03A
:100E20000F01021F116032E01A491431884208D1C3
:100E30001849091F096841F0F001164A121F116094
:100E400025E014492831884208D11249091F096850
:100E500041F470610F4A121F116018E00D493C31D6
:100E6000884208D10B49091F096841F47041094AB9
:100E7000121F11600BE007495031884207D1054924
:100E8000091F096841F47021024A121F116070475E
:100E9000080002400804024001460020002201F040
:100EA000805313B1054B1A6801E0054B1A6802EA3A
:100EB00001030BB1012000E0002070470004024054
:100EC000000002401AB103680B43036002E00368AC
:100ED0008B430360704710B50022026847F6F07339
:100EE0009A430C6A8B6823430C6923434C69234360
:100EF0008C692343CC6923434C6A23438C6A234384
:100F00001A430260CB6843600B6883604B68C36020
:100F100010BD704710B5601C84B20421084800F071
:100F200057F9012807D107480088401C0549088067
:100F3000002401F061F8042000F006F810BD000064
:100F4000000C014084000020014908607047000047
:100F500014040140002123498279002A3AD00A462C
:100F6000126803689A430B461A600A1D12680368E8
:100F70009A430B1D1A60027911440A6803681A43E8
:100F80000A60184A0832126803689A43154B0833FE
:100F90001A601A1D126803689A43124B0C331A60C8
:100FA0004279102A0ED11A1F126803681A430D4B9A
:100FB00008331A601A1D126803681A43094B0C3370
:100FC0001A600DE00749427911440A6803681A4320
:100FD0000A6005E0027911440A6803689A430A60CE
:100FE000704700000004014030B500228B071C0F41
:100FF0000F2303FA04F20B4B8C1053F82430934365
:10100000084C8D1044F8253023468C1053F82430BA
:101010008C07240F00FA04F42343024C8D1044F88B
:10102000253030BD080001402DE9F0410246002581
:101030000026002000230024002791F803C00CF0B4
:101040000F0591F803C00CF0100CBCF1000F03D099
:1010500091F802C04CEA050591F800C0BCF1000F00
:1010600031D0146800202BE04FF0010C0CFA00F393
:10107000B1F800C00CEA03069E4220D183004FF075
:101080000F0C0CFA03F7BC4305FA03FC4CEA04040A
:1010900091F803C0BCF1280F06D14FF0010C0CFAF7
:1010A00000FCC2F814C00AE091F803C0BCF1480F7C
:1010B00005D14FF0010C0CFA00FCC2F810C0401C26
:1010C0000828D1D31460B1F800C0BCF1FF0F34DDA3
:1010D000546800202EE000F1080C4FF0010808FAD7
:1010E0000CF3B1F800C00CEA03069E4221D1830044
:1010F0004FF00F0C0CFA03F7BC4305FA03FC4CEA63
:10110000040491F803C0BCF1280F05D100F1080CCC
:1011100008FA0CF8C2F8148091F803C0BCF1480F2B
:1011200007D100F1080C4FF0010808FA0CF8C2F8DA
:101130001080401C0828CED35460BDE8F081000028
:10114000F0B50A46002300240021002500F00046E7
:10115000B6F1004F02D11D4EF16901E01B4E7168DE
:10116000C0F3034583B200F44016B6F5401F08D122
:1011700021F07061154E766826F07066134F7E6020
:1011800012E000F48016B6F5801F06D1032606FA99
:1011900005F4A14341F0706106E0460D360103FA03
:1011A00006F6B14341F0706122B1460D360103FAF3
:1011B00006F6314300F00046B6F1004F02D1034E6F
:1011C000F16101E0014E7160F0BD000000000140DE
:1011D0000246002093680B400BB1012000E0002084
:1011E000704741617047016170470AB1016100E0D9
:1011F0004161704730B589B005460C46012108466B
:1012000000F0BCF90121092000F0D8F901211B48A8
:10121000FFF796FF4FF48060ADF8200018208DF89E
:10122000230003208DF8220008A91548FFF7FCFED3
:10123000ADF81850ADF814400020ADF81A00ADF824
:10124000160005A94FF0804000F034FE6020ADF894
:1012500004000120ADF806000220ADF80C0001A941
:10126000400700F073FD0821C80600F0BFFD012112
:10127000880700F085FB09B030BD000000031800AE
:10128000000C014010B502F06DFC01F0C1FD01F051
:1012900025FE02F0DBFEFFF7A9FA10BD1CB500BF6A
:1012A00000BF0024002500260020019036E001A8A0
:1012B0004FF0FF33062204210090194803F050F844
:1012C000019804282AD117480088002826DD002428
:1012D0000AE01448801D30F814000544124830F824
:1012E00014000644601C84B20E480088A042F0DC62
:1012F0000C480088B5FBF0F00C49C880094800880C
:10130000B6FBF0F008810025002600200549088082
:10131000012088800020488005490880C7E7000038
:10132000141300203C1300202A170020180000206E
:10133000840000201FB500200221CA01094BCDE91D
:101340000032CDE902100346074A08A10A4804F01A
:1013500027FA002209A10C4802F0F2FF064804F027
:1013600089FA1FBDA41B00209D120008495F4D6F24
:101370006E69746F72000000141B00205052445FAD
:10138000495F6576656E74001413002010B5022164
:101390000348FFF71DFF08B1002010BD0120FCE746
:1013A000000C014000BFFEE77047000070B500214F
:1013B00000230F22C47804B3154C246804F4E064BD
:1013C000C4F5E064210AC1F10403CA40447804FA78
:1013D00003F184781440214309010E4C0678A1558D
:1013E000047804F01F050124AC4005786D11AD00B0
:1013F00005F1E025C5F8004109E0047804F01F0577
:101400000124AC40044D0678761145F8264070BDA5
:101410000CED00E000E400E080E100E0024901435F
:10142000024A1160704700000000FA050CED00E070
:1014300010B50024084B598818889A6890470648C8
:101440008188064800F033FD044844300488214672
:1014500003A003F0FFFA10BDE8010020002C0140BA
:1014600074696D315F62647472203D2025640A0ADC
:101470000000000010B5FFF7DBFF10BD10B50446FB
:101480000121044800F088FA0121204600F078FA92
:1014900010BD0000002C014010B50446002120467C
:1014A00000F07AFA0021204600F06AFA10BD000030
:1014B00010B54FF4F87021494880214880880128F0
:1014C0003AD10846007C012819D10846C07C002882
:1014D00032D10846C088498888420BDA174800880C
:1014E000401C16490880088804F044FD0020134978
:1014F000887421E0012011498874C8741CE00F48E9
:10150000007C022818D10D48007DA8B90B4800893D
:101510000A49498888420BDA08480088401C074974
:101520000880088804F026FD00200449887403E040
:10153000012002498874C87410BD00001800002002
:101540003C13002001460020034A506820F440402C
:1015500008435060704700000010024029B1064A5D
:1015600052690243044B5A6104E0034A52698243C0
:10157000014B5A61704700000010024029B1064A31
:10158000D2690243044BDA6104E0034AD269824320
:10159000014BDA61704700000010024029B1064A91
:1015A00012690243044B1A6104E0034A1269824340
:1015B000014B1A61704700000010024029B1064A31
:1015C00092690243044B9A6104E0034A92698243A0
:1015D000014B9A61704700000010024029B1064A91
:1015E000D2680243044BDA6004E0034AD2688243C3
:1015F000014BDA60704700000010024030B5002156
:101600000022002400232D4D6D6805F00C0121B14E
:10161000042905D0082923D105E0294D056022E0E1
:10162000274D05601FE0254D6D6805F47012234DB0
:101630006D6805F48034022505EB92421CB9214DFA
:10164000554305600BE01D4D6D6805F400351DB177
:101650001C4D5543056002E0194D5543056002E0FD
:10166000174D056000BF00BF144D6D6805F0F00117
:101670000909154D6B5C0568DD4045600F4D6D68CF
:1016800005F4E061090A104D6B5C4568DD4085603A
:101690000A4D6D6805F46051C90A0B4D6B5C4568D5
:1016A000DD40C560054D6D6805F44041890B074D6F
:1016B0006B5CC568B5FBF3F5056130BD00100240F9
:1016C00000127A0000093D002202002032020020B0
:1016D000704710B500F002F810BD00000CB50020F6
:1016E000019000903348006840F480303149086030
:1016F00000BF3048006800F4003000900198401CA2
:101700000190009818B90198B0F5A06FF1D129485F
:10171000006800F4003010B10120009001E00020CA
:1017200000900098012843D12348006840F0100041
:10173000214908600846006820F003000860084658
:10174000006840F0020008601A4840681949486083
:101750000846406848600846406840F48060486039
:101760000846406820F47C1048600846406840F411
:10177000E81048600846006840F08070086000BFCC
:101780000C48006800F000700028F9D00948406853
:1017900020F00300074948600846406840F0020016
:1017A000486000BF0348406800F00C000828F9D1E9
:1017B0000CBD0000001002400020024010B503F0F4
:1017C000C7F804F0F3F803F0D3F810BD10B500210A
:1017D00000200022214B5B6803F00C0121B1042999
:1017E00006D0082928D107E01D4B1E4C236027E0B6
:1017F0001B4B1C4C236023E0184B5B6803F47010F8
:10180000164B5B6803F48032022303EB904022B94D
:10181000154B4343134C23600DE0104B5B6803F4FE
:10182000003323B1104B43430E4C236003E00C4BB9
:1018300043430C4C236003E0094B0A4C236000BF78
:1018400000BF064B5B68C3F30313084CE15C054B18
:101850001B68CB40034C236010BD00000010024009
:1018600000127A000000002000093D000400002062
:1018700010B51348006840F001001149086008469F
:101880004068104908400E494860084600680E4903
:1018900008400B4908600846006820F48020086072
:1018A0000846406820F4FE0048604FF41F0088603E
:1018B000FFF70FFF4FF000600449086010BD000003
:1018C000001002400000FFF8FFFFF6FE08ED00E008
:1018D00010B50121144800F063F920B30421134826
:1018E000FFF776FC012805D111480088401C1049FB
:1018F000088004E000F088FB00200D4908800C48B7
:10190000008805280BDB0B48FFF7C6FD02F09EFBA5
:1019100000F07AFB00200649088007490880012171
:10192000014800F02AF810BD00040040000C0140FE
:1019300020020020002C01405C00002021B1028820
:1019400042F08002028004E002884FF67F731A4062
:10195000028070470A884B881A438B881A43CB88C9
:101960001A430B891A434B891A438B891A43A0F8EF
:1019700044207047CA4302827047CA4302827047BC
:1019800021B1028842F00102028004E002884FF691
:10199000FE731A400280704731B1B0F8442042F41F
:1019A0000042A0F8442005E0B0F84420C2F30E0243
:1019B000A0F844207047000010B5044668488442EF
:1019C00008D10121C014FFF709FE0021E014FFF740
:1019D00005FEC4E0B4F1804F08D101210846FFF7AD
:1019E000DDFD00210120FFF7D9FDB8E05D4884420C
:1019F00008D101210220FFF7D1FD00210220FFF7CD
:101A0000CDFDACE05848844208D101210420FFF705
:101A1000C5FD00210420FFF7C1FDA0E0534884422A
:101A200008D101210820FFF7B9FD00210820FFF7A8
:101A3000B5FD94E04E48844208D101211020FFF703
:101A4000ADFD00211020FFF7A9FD88E04948844240
:101A500008D101212020FFF7A1FD00212020FFF760
:101A60009DFD7CE04448844208D101214014FFF7E9
:101A7000B5FD00216014FFF7B1FD70E03F488442DE
:101A800009D10121C804FFF7A9FD00214FF400206E
:101A9000FFF7A4FD63E03A48844209D1012108051B
:101AA000FFF79CFD00214FF48010FFF797FD56E0F3
:101AB0003448844209D101214805FFF78FFD0021F8
:101AC0004FF40010FFF78AFD49E02F48844208D107
:101AD00001214020FFF762FD00214020FFF75EFD5D
:101AE0003DE02A48844208D101218020FFF756FDBD
:101AF00000218020FFF752FD31E02548844208D1C3
:101B000001218015FFF74AFD0021A015FFF746FDD2
:101B100025E02048844209D101210804FFF75EFD39
:101B200000214FF48030FFF759FD18E01A48844235
:101B300009D101214804FFF751FD00214FF4003085
:101B4000FFF74CFD0BE01548844208D101218804C1
:101B5000FFF744FD00214FF48020FFF73FFD10BD4B
:101B6000002C01400004004000080040000C004030
:101B7000001000400014004000340140004C0140BF
:101B8000005001400054014000180040001C00407B
:101B90000020004000400140004401400048014056
:101BA00030B50246002000230024158A05EA01030F
:101BB000958905EA010413B10CB1012000E0002071
:101BC00030BD1AB183890B43838102E083898B4343
:101BD0008381704701894FF6F87211400181704787
:101BE00070B5002400220023058C4FF6FE763540A8
:101BF0000584028C8388048B4FF68F752C40B51EAC
:101C00002C400D882C43751E2A400D892A434D888F
:101C10002A43144DA8420BD0134DA84208D0134DAF
:101C2000A84205D0124DA84202D0124DA84213D1AD
:101C30004FF6F7752A404D892A434FF6FB752A4027
:101C40008D882A434FF6FF652B404FF6FF552B40FA
:101C50008D892B43CD892B4383800483CD88858652
:101C6000028470BD002C014000340140004001405E
:101C700000440140004801400A460021018B4FF614
:101C8000F7731940114301837047000070B50024B9
:101C900000220023058C4FF6EF7635400584028C38
:101CA0008388048B48F6FF752C404FF6FF452C4087
:101CB0000D884FF6FF7606EA05252C434FF6DF75B3
:101CC0002A400D8906EA05152A434D8806EA0515BE
:101CD0002A43154DA84202D0144DA8421DD14FF6FB
:101CE0007F752A404D894FF6FF7606EA05152A438F
:101CF0004FF6BF752A408D8806EA05152A434FF630
:101D0000FF352B404FF2FF752B408D8906EA850584
:101D10002B43CD8906EA85052B4383800483CD8838
:101D20000587028470BD0000002C01400034014092
:101D30000A460021018B4FF2FF7319404FF6FF73E3
:101D400003EA0223194301837047000070B50024A1
:101D500000220023058C4FF6FF6635400584028C77
:101D60008388848B4FF68F752C404FF6FC752C4082
:101D70000D882C434FF6FF552A400D894FF6FF760C
:101D800006EA05252A434D8806EA05252A43154D0E
:101D9000A84202D0144DA8421DD14FF2FF752A402F
:101DA0004D894FF6FF7606EA05252A434FF6FF35A3
:101DB0002A408D8806EA05252A434EF6FF752B40FA
:101DC0004DF6FF752B408D8906EA05152B43CD890D
:101DD00006EA05152B4383808483CD88858702849A
:101DE00070BD0000002C0140003401400A46002173
:101DF000818B4FF6F77319401143818370470000C0
:101E000070B5002200230024058C4EF6FF76354085
:101E10000584038C8488828B48F6FF752A404FF630
:101E2000FF452A400D884FF6FF7606EA05252A432E
:101E30004DF6FF752B400D8906EA05352B434D887D
:101E400006EA05352B430B4DA84202D00A4DA842A5
:101E500008D14BF6FF752C408D894FF6FF7606EAC8
:101E600085152C4384808283CD88A0F8405003845C
:101E700070BD0000002C0140003401400A460021E2
:101E8000818B4FF2FF7319404FF6FF7303EA022371
:101E90001943818370470021018041808180C18086
:101EA000018141818181C18170478185704781862F
:101EB00070470000002202881D4B98420ED01D4B37
:101EC00098420BD0B0F1804F08D01B4B984205D000
:101ED0001A4B984202D01A4B984204D14FF68F7396
:101EE0001A404B881A43174B984207D0164B98421A
:101EF00004D04FF6FF431A40CB881A4302808B88E8
:101F000083850B8803850A4B98420BD0094B984276
:101F100008D00E4B984205D00D4B984202D00D4B85
:101F2000984201D10B7A0386012383827047000017
:101F3000002C014000340140000400400008004033
:101F4000000C004000100040001400400040014020
:101F500000440140004801404FF6FF71818000219C
:101F60000180C18041800172704700007FB5044646
:101F70000D4601210220FFF701FB1A48FFF71CFD67
:101F80001848FFF727FEADF804500020ADF80A000E
:101F9000ADF80600022C01DA012000E0601E80B2DC
:101FA000ADF8080001A90F48FFF784FF00210D4894
:101FB000FFF7C4FC1D208DF8000000208DF8010003
:101FC0008DF8020001208DF803006846FFF7EEF956
:101FD00001210448FFF7CEFC012211460148FFF71A
:101FE000F0FD7FBD0004004010B523214FF47A704E
:101FF000FFF7BCFF10BD000010B501210148FFF73D
:10200000BFFC10BD0004004010B500210148FFF7DF
:10201000B7FC10BD0004004010B540F225511D482A
:1020200000F060F810B31B4800F0F2F8C4B21A4890
:10203000008800F40040C8B91748008800F48040C8
:1020400060B10A2C03D000201349088020E0124818
:10205000008840F400401049088019E00D2C06D19A
:102060000D48008840F480400B49088010E00A4881
:102070000088C0F30D0009490C5407480088401C33
:102080000549088008460088C72801DD002008802F
:1020900010BD000000380140800000209E2100207B
:1020A00001F40072B2F5007F00D100BFCA43028084
:1020B000704721B1828942F40052828104E0828912
:1020C0004DF6FF731A408281704702460020B1F539
:1020D000007F00D100BF13880B400BB1012000E04E
:1020E0000020704770B50246002400230025002020
:1020F00040F66A16B14200D100BFC1F3421501F0AB
:102100001F03012606FA03F3012D02D196893340FD
:1021100006E0022D02D1168A334001E0968A334050
:102120000C12012606FA04F41688344013B10CB1DF
:10213000012000E0002070BD2DE9F04786B0054683
:102140000E460024A24600BFA1460027B08900B178
:1021500000BF2F462C8A4CF6FF700440F0880443E1
:102160002C82AC894EF6F3100440B08831890843C4
:10217000718908430443AC81AC8A4FF6FF400440A8
:10218000B0890443AC8201A8FFF738FA1F488742A0
:1021900002D1DDF810A001E0DDF80CA0A88900F460
:1021A000004040B10AEBCA0000EB0A103168490058
:1021B000B0FBF1F807E00AEBCA0000EB0A10316847
:1021C0008900B0FBF1F86420B8FBF0F004012009AD
:1021D000642101FB1089A88900F4004040B132203D
:1021E00000EBC900B0FBF1F000F00700044308E089
:1021F000322000EB09106421B0FBF1F000F00F0079
:1022000004432C8106B0BDE8F0870000003801408F
:1022100001468888C0F308007047C1F30802828035
:10222000704700BFFEE7000030B589B005460C4698
:1022300001210846FFF7A2F901210920FFF7BEF9A5
:1022400001211B48FEF77CFF4FF40060ADF8200031
:1022500018208DF8230003208DF8220008A91548C6
:10226000FEF7E2FEADF81850ADF814400020ADF8CE
:102270001A00ADF8160005A94FF08040FFF71AFECE
:102280007020ADF804000120ADF806000220ADF882
:102290000C0001A94007FFF7B3FD0821C806FFF7AE
:1022A000EDFD01218807FFF76BFB09B030BD000091
:1022B00000031800000C014030B589B005460C46FB
:1022C00005A8FFF749FE01A8FFF7E5FD0121C802B7
:1022D000FFF774F901210820FFF770F9ADF81850E5
:1022E000ADF814400020ADF81A00ADF816008DF8D6
:1022F0001C0005A91748FFF7DDFD4FF48040ADF83D
:10230000200018208DF8230003208DF8220008A952
:102310001148FEF789FE01A8FFF7BDFD7020ADF85A
:1023200004000420ADF808000820ADF80E0001A953
:102330000848FFF7ABFC08210648FFF7F9FC01212C
:102340000448FFF729FB01210248FFF719FB09B0F8
:1023500030BD0000002C0140000C014002E00A20CA
:1023600003F038FAFBE700001FB5142003214FF4F7
:102370008072074BCDE90032CDE902100023054AF7
:1023800005A1084803F00CFA064803F073FA1FBDD4
:10239000341D00205D230008565F4D6F6E69746F19
:1023A00072000000A41C00200146481EB0F1807F8E
:1023B00001D301207047481E4FF0E0225061FF20FA
:1023C000044A107000204FF0E02290610720106155
:1023D0000020EFE723ED00E0014609B90020704737
:1023E000C8B220B1C8B20E4A105C401CF7E701F435
:1023F0007F4028B10A48C1F30722805C0930EEE72C
:1024000001F47F0028B10648C1F30742805C113017
:10241000E5E7034800EB116000781930DFE70000C2
:102420000862000802E008C8121F08C1002AFAD199
:1024300070477047002001E001C1121F002AFBD144
:102440007047000003490868884201D001207047A6
:102450000020FCE7D80200202DE9F04389B00646B1
:1024600088469146002400E0641C305D202804D09A
:10247000305D092801D04445F6D324B94FF0FF3030
:1024800009B0BDE8F0832146304601F0B3FC0546B3
:1024900015B94FF0FF30F3E7202101A8FDF7F7FE53
:1024A00001AA4146304601F00FFD074617B94FF02B
:1024B000FF30E5E701A93846A847C9F80000002029
:1024C000DEE700002DE9FC5F04468B4615461E46FC
:1024D000DDE90C9ADDE90E7804F11C004060006033
:1024E00000BF24346560A660C4F80C90C4F810A046
:1024F0002321D4E9030202F0CDFCD4E9033C634478
:102500001A1F0F4BD4E9010102F0FCF92060A776F5
:1025100067760020E061C4F82880C4F82C806061F0
:1025200020766066A066243C00902346054A21463A
:10253000019004F1540003F0BBFA0020BDE8FC9FB9
:1025400075560008E55800082DE9F04704460E4688
:1025500017469846DDF8209084F81190607C20F0B2
:10256000010060746662A76200202063C4F82C80BA
:10257000002506E004F11C0101EBC50002F088FA19
:102580006D1C012DF6DBBDE8F08710B5024600207A
:1025900001460EE002F11C0303EBC100D0E9004349
:1025A0006360D0E9003423604060006000BF481CD5
:1025B00001460129EEDB10BD10B520A002F04AFA59
:1025C0002148017821A002F045FA1F48007800F068
:1025D000010010B123A002F03DFA1B48007800F082
:1025E000020010B122A002F035FA1748007800F07E
:1025F000040010B121A002F02DFA1348007800F079
:10260000080010B121A002F025FA0F48007800F070
:10261000100010B120A002F01DFA0B48007800F065
:10262000800030B108480F3001681DA002F012FA96
:1026300002E01FA002F00EFA10BD000062757320C8
:102640006661756C743A0A0029ED00E05343425FFD
:10265000434653525F424653523A307825303258FF
:10266000200000004942555345525220000000000E
:10267000505245434953455252200000494D505253
:10268000454349534552522000000000554E5354D3
:102690004B4552522000000053544B4552522000EB
:1026A0005343422D3E424641523A253038580A00A3
:1026B0000A0000001CB50A2005214FF48073002297
:1026C000CDE90010054906A002F0ABFF044614B1A5
:1026D000204603F0CFF800201CBD0000F1260008C2
:1026E000627574746F6E5F70726F636573730000F0
:1026F00008B5002400234FF4807201211AA002F0D3
:10270000EDFB1C4908600846006810B11AA002F0F1
:10271000A1F928E04FF0FF3301226946154800680F
:1027200002F02AFC0446002C19D19DF80000012873
:1027300004D0022806D003280CD107E015A002F02F
:1027400089F90BE01CA002F085F907E022A002F055
:1027500081F903E02CA002F07DF900BF03E02146DF
:102760002FA002F077F9D5E7627574746F6E5F6D14
:102770007100000088000020627574746F6E5F6DD8
:10278000712063726561746520737563636573732B
:102790000A0A000052656365697665206D6573738A
:1027A0006167653A4B4559312850422E3329204400
:1027B0006F776E0A0A0000005265636569766520CE
:1027C0006D6573736167653A4B4559312850422EE8
:1027D00033292055700A0A005265636569766520C1
:1027E0006D6573736167653A4B4559312850422EC8
:1027F0003329204C6F6E6750726573736564204493
:102800006F776E0A0A0000004E6F20627574746F55
:102810006E204D657373616765210A0A0000000030
:10282000E695B0E68DAEE68EA5E694B6E99499E815
:10283000AFAFEFBC8CE99499E8AFAFE4BBA3E7A0DE
:1028400081EFBC9A3078256C780A0A0010B50A48E6
:102850000088B0F5167F08DA07480088401C064952
:102860000880088803F086FB05E001200349087012
:1028700005200149487410BD1800002014000020F4
:1028800070B504460D4600F0BFFD002070BD70B568
:1028900004460D4600F0BAFF002070BD10B50021BF
:1028A00000220A2390FBF3F399B2114B1B78C3B9B2
:1028B000104B1B885B1C0F4C23800F4B1B88022B7B
:1028C00014DB23461B88142493FBF4F30B4C238066
:1028D0000123074C23700023064C2380064C2380E1
:1028E00004E0034B1B78012B00D000BF10BD00009B
:1028F000360000206E0000208400002070000020C0
:1029000010B51448006890F82900C0F3400020B9C1
:10291000002011490870084610BD1048006838B101
:1029200080220E4801680C48FDF7C8FC0A48F3E70E
:1029300001F0C8FA20B10AA10748FDF7D2FC03E074
:1029400009A10548FDF7CDFC09A10348FDF7AAFC44
:102950000148E1E70C030020F02B002010030020C9
:102960006D7368200000000066696E7368200000C7
:102970003E00000010B501F077FE10BD0549096862
:1029800091F8291060F34101024A126882F8291077
:10299000704700000C030020024A1060024A1160D8
:1029A00070470000FC020020000300207CB50025D9
:1029B00017491848FFF7F0FF8021012001F082FC41
:1029C000154908600846006820B914A002F042F8D2
:1029D000681E7CBD0A2015214FF400730022CDE94A
:1029E0000010144914A002F01CFE044600231A46ED
:1029F00013A10948006802F065FC0120FFF7BEFF43
:102A00001CB115B9204602F035FF0020E1E70000B7
:102A100070650008C06400080C0300206E6F206D14
:102A2000656D6F727920666F72207368656C6C0AD1
:102A300000000000492A0008747368656C6C00008F
:102A40007368727800000000E948006890F8290077
:102A500020F00100401CE649096881F82900FFF7D1
:102A60004FFF054601F0F6FFC1E1FFF783FF044683
:102A7000002C00DABBE11B2C05D10120DC490968E0
:102A800081F82800B3E1DA48006890F828000128AE
:102A90000DD15B2C05D10220D549096881F82800A9
:102AA000A5E10020D249096881F8280045E0D04816
:102AB000006890F8280002283FD10020CC4909681E
:102AC00081F82800412C00D191E1422C00D18EE107
:102AD000442C11D1C6480068B0F87C0058B1C5A09C
:102AE00001F0B8FFC2480068B0F87C00401EC04941
:102AF0000968A1F87C007AE1432C1ED1BC4800682B
:102B0000B0F87C00BA490968B1F87A10884213DA43
:102B1000B7480068B0F87C20B54800682A30815C6E
:102B2000B5A001F097FFB2480068B0F87C00401CE7
:102B3000AF490968A1F87C0059E10CB1FF2C00D124
:102B400055E1092C1FD1002503E0AAA001F082FF66
:102B50006D1CA7480068B0F87C00A842F5DCA448CA
:102B600000682A3003F01EFAA14800682A30FDF7F9
:102B7000B1FB80B29E490968A1F87A009C490968B6
:102B8000A1F87C0033E17F2C01D0082C6ED198484D
:102B90000068B0F87C0000B929E195480068B0F8F9
:102BA0007A00401E92490968A1F87A0090480068AE
:102BB000B0F87C00401E8E490968A1F87C008C4862
:102BC0000068B0F87A008A490968B1F87C10884238
:102BD0003FDD874B1B68B3F87A30854E3668B6F810
:102BE0007C609A1B824B1B68B3F87C305B1C804E68
:102BF00036682A3699197E4B1B68B3F87C607C4B8B
:102C00001B682A33F01802F024F900227848006883
:102C1000B0F87A10764800682A3042547448006848
:102C2000B0F87C20724800682A30111873A001F0B7
:102C300011FF6F480068B0F87C5003E06DA001F010
:102C400009FF6D1C6A480068B0F87A00A842F5DAFE
:102C50000BE06CA001F0FEFE002165480068B0F8B2
:102C60007A20634800682A308154C0E00D2C01D0DE
:102C70000A2C2BD101F026F9012812D15C480068FA
:102C800090F8290000F0010010B15FA001F0E2FE11
:102C900057480068B0F87A10554800682A3001F0AB
:102CA00073F8FFF72DFE054601F0D4FE5021504881
:102CB00000682A30FDF7EBFA00204D490968A1F8B9
:102CC0007A004B490968A1F87C0090E04848006808
:102CD000B0F87A00502804DB002045490968A1F8C3
:102CE0007A0043480068B0F87C0041490968B1F8AF
:102CF0007A10884245DA3E4B1B68B3F87A303C4E76
:102D00003668B6F87C609A1B394B1B68B3F87C6058
:102D1000374B1B682A33F118354B1B68B3F87C30EE
:102D20005B1C334E36682A36981902F092F8304808
:102D30000068B0F87C202E4800682A3084542C4863
:102D4000006890F8290000F0010050B128480068A0
:102D5000B0F87C20264800682A3011182BA001F01A
:102D600079FE23480068B0F87C5003E021A001F010
:102D700071FE6D1C1E480068B0F87A00A842F5DCB0
:102D800012E01B480068B0F87A20194800682A3021
:102D900084541748006890F8290000F0010018B129
:102DA000214615A001F056FE002411480068B0F835
:102DB0007A00401C0E490968A1F87A000C480068A6
:102DC000B0F87C00401C0A490968A1F87C0008485A
:102DD0000068B0F87A00502808DB00200449096830
:102DE000A1F87A0002490968A1F87C0000BF3CE61E
:102DF0000C03002008000000256300000825732054
:102E000020080000082008000A00000025730000C8
:102E100008B501210820FEF7D1FB10208DF8030032
:102E20000002ADF8000003208DF802006946024858
:102E3000FEF7FAF808BD0000000C014010B5144878
:102E4000006800F0020010B112A001F003FE10486B
:102E5000006800F0804088B10D48C01E007808B1BD
:102E6000FFF7AAFB0A48001F007808B100F0C8FE6F
:102E70000748801E008808B103F028F9044800685C
:102E800000F0004010B109A001F0E4FD10BD000009
:102E90002CED00E06661696C656420766563746F93
:102EA000722066657463680A0000000064656275DC
:102EB00067206576656E740A0000000010B502A0F8
:102EC00001F0C8FD002010BD48656C6C6F205254A5
:102ED0002D546872656164210A00000008B5012163
:102EE0000820FEF76BFB01210846FEF767FB012176
:102EF0000848FEF725F948208DF803000220ADF8B8
:102F0000000003208DF8020069460348FEF78CF8A4
:102F100008BD000000023000000C014013B59DF810
:102F20000000012827D19DF8010020B92021384850
:102F3000FEF757F96AE09DF80100012866D1BDF857
:102F400002004FF6FF71884204DB20213048FEF773
:102F50004AF95BE020212E48FEF745F9BDF8020052
:102F600002F038FC20212A48FEF73BF9BDF80200A8
:102F700002F030FC4AE09DF80000022846D19DF89E
:102F8000010020B910212248FEF72BF93EE09DF800
:102F9000010001281BD1BDF802004FF6FF718842E5
:102FA00004DB10211A48FEF71EF92FE01021184803
:102FB000FEF719F9BDF8020002F00CFC10211448CC
:102FC000FEF70FF9BDF8020002F004FC1EE09DF8C8
:102FD000000003281AD1BDF802004FF6FF718842A5
:102FE00004DB08210A48FEF7FEF80FE00821084834
:102FF000FEF7F9F8BDF8020002F0ECFB08210448E6
:10300000FEF7EFF8BDF8020002F0E4FB1CBD000083
:10301000000C014003E00248426803C89047FAE709
:103020008C0000201FB5142005214FF48072074B3F
:10303000CDE90032CDE902100023054A05A106487A
:1030400002F0AEFB044802F015FC1FBD082300206F
:10305000153000086C6564007822002010B50CA0C3
:1030600001F0F8FC0F4804680CE002220EA1206871
:10307000FDF740F900B904E00CA0216801F0EAFC7A
:1030800000BF08340A4800688442EED3002010BD17
:103090002D2D46756E6374696F6E204C6973743A9A
:1030A0000A000000FC0200205F5F000025730A0098
:1030B000000300202DE9F04F8FB000270FF2C00968
:1030C000082302AA04210AA800F096F84FF010087D
:1030D0004A4641462CA001F0BDFC404600F06CFF82
:1030E00032A001F0B7FC00BF0AA9384600F099F8F9
:1030F000074600253BE002A850F82500A0F1140681
:10310000FDF732F88346307C20F080009DF83010C7
:10311000884203D05846FDF72BF827E05846FDF7C4
:1031200027F8344604F11C0001F0E1FCA8B904F1D1
:103130001C0001F0E4FC8246606A234610224146EE
:10314000CDE9000A21A001F085FC04F11C0002F089
:1031500045FF15A001F07EFC07E0606A23461022BF
:10316000414600901FA001F075FC00BF6D1C0E9839
:10317000A842C0DC002FB7D100200FB0BDE8F08F0F
:103180006576656E74000000252D2A2E73202020A0
:103190002020207365742020202073757370656E65
:1031A00064207468726561640A00000020202D2D7F
:1031B0002D2D2D2D2D2D2D2D202D2D2D2D2D2D2D4C
:1031C0002D2D2D2D2D2D2D0A00000000252D2A2E10
:1031D0002A73202030782530387820253033643A1F
:1031E00000000000252D2A2E2A732020307825305B
:1031F000387820300A0000002DE9F04704460D46DB
:1032000016461F46284601F081FF814609F1040851
:10321000C4F8008025726660E76000202061BDE888
:10322000F0872DE9F84F07460C464FF0000A0020C2
:103230002061E06808B1207A10B90020BDE8F88F5D
:10324000D4F800801FB945464FF0010A00E03D4622
:10325000FCF78AFF0090BAF1000F0ED1A5F1140B14
:103260009BF8100020F08000217A884204D000985A
:10327000FCF77EFF0020E1E700BF0026D4F80490B1
:103280000BE02D68454501D1002507E0761C49F883
:10329000045BE068B04200D100E0F2E700BF0098B4
:1032A000FCF766FF26612846C8E700002DE9F04FCD
:1032B00091B000270FF2D409082304AA05210CA815
:1032C000FFF79AFF4FF010084A46414631A001F03F
:1032D000C1FB404600F070FE37A001F0BBFB00BF11
:1032E0000CA93846FFF79DFF0746002545E004A8D6
:1032F00050F82500A0F11406FCF736FF8346307C19
:1033000020F080009DF83810884203D05846FCF722
:103310002FFF31E05846FCF72BFF344604F11C0028
:1033200001F0E5FBB8B904F11C0001F0E8FB8246AE
:10333000208D618D23461022CDE9010A009141467E
:1033400024A001F087FB04F11C0002F047FE27A037
:1033500001F080FB0FE004F11C0001F0D0FB82467D
:10336000208D618D23461022CDE9010A009141464E
:103370001FA001F06FFB00BF6D1C1098A842B6DCC7
:10338000002FADD1002011B0BDE8F08F6D61696CE8
:10339000626F7800252D2A2E7320656E7472792055
:1033A00073697A652073757370656E6420746872D2
:1033B0006561640A00000000202D2D2D2D20202D98
:1033C0002D2D2D202D2D2D2D2D2D2D2D2D2D2D2D3A
:1033D0002D2D0A00252D2A2E2A7320253034642015
:1033E00020253034642025643A0000000A000000E3
:1033F000252D2A2E2A7320253034642020253034B0
:10340000642025640A00000010B50848016808A07F
:1034100001F020FB0B4801680BA001F01BFB0F48DB
:1034200001680FA001F016FB10BD00004C02002047
:10343000746F74616C206D656D6F72793A202564CC
:103440000A0000005002002075736564206D656DF0
:103450006F7279203A2025640A000000540200208F
:103460006D6178696D756D20616C6C6F63617465F9
:1034700064206D656D6F72793A2025640A00000042
:103480002DE9F04F8FB000270FF2CC09082302AAD4
:1034900006210AA8FFF7B0FE4FF010084A46414641
:1034A00030A001F0D7FA404600F086FD34A001F0CC
:1034B000D1FA00BF0AA93846FFF7B3FE0746002538
:1034C00041E002A850F82500A0F11406FCF74CFEDC
:1034D0008346307C20F080009DF83010884203D075
:1034E0005846FCF745FE2DE05846FCF741FE3446B1
:1034F00004F11C0001F0FBFAA8B904F11C0001F072
:10350000FEFA8246A08D234610224146CDE9000AEC
:1035100021A001F09FFA04F11C0002F05FFD23A03E
:1035200001F098FA0DE004F11C0001F0E8FA82467F
:10353000A08D234610224146CDE9000A1CA001F0CF
:1035400089FA00BF6D1C0E98A842BADC002FB1D1D9
:1035500000200FB0BDE8F08F6D73677175657565FC
:1035600000000000252D2A2E7320656E74727920CC
:1035700073757370656E64207468726561640A00A7
:10358000202D2D2D2D20202D2D2D2D2D2D2D2D2D92
:103590002D2D2D2D2D0A0000252D2A2E2A732025B4
:1035A000303464202025643A000000000A00000046
:1035B000252D2A2E2A732025303464202025640AE4
:1035C000000000002DE9F04F91B000270FF2A00994
:1035D000082304AA03210CA8FFF70EFE4FF01008E1
:1035E0004A46414624A001F035FA404600F0E4FC8A
:1035F0002AA001F02FFA00BF0CA93846FFF711FEF0
:10360000074600262AE004A850F82600A0F114047A
:10361000FCF7AAFD8346207C20F080009DF838103E
:10362000884203D05846FCF7A3FD16E05846FCF745
:103630009FFD254605F11C0001F061FA824695F8D0
:1036400027001022A96A2B46CDE9020ACDE9002104
:1036500041461AA001F0FEF900BF761C1098B04256
:10366000D1DC002FC8D1002011B0BDE8F08F0000E0
:103670006D75746578000000252D2A2E732020209A
:103680006F776E65722020686F6C6420737573703D
:10369000656E64207468726561640A00202D2D2DAA
:1036A0002D2D2D2D2D202D2D2D2D202D2D2D2D2D64
:1036B0002D2D2D2D2D2D2D2D2D0A0000252D2A2EC1
:1036C0002A7320252D382E2A732025303464202596
:1036D000640A00002DE9F04F8FB000270FF2CC09EB
:1036E000082302AA02210AA8FFF786FD4FF010085E
:1036F0004A46414630A001F0ADF9404600F05CFC7E
:1037000034A001F0A7F900BF0AA93846FFF789FDE8
:103710000746002541E002A850F82500A0F1140654
:10372000FCF722FD8346307C20F080009DF83010AD
:10373000884203D05846FCF71BFD2DE05846FCF7A5
:1037400017FD344604F11C0001F0D1F9A8B904F1C9
:103750001C0001F0D4F98246A08C23461022414679
:10376000CDE9000A21A001F075F904F11C0002F076
:1037700035FC17A001F06EF90DE004F11C0001F01A
:10378000BEF98246A08C234610224146CDE9000AAC
:103790001AA001F05FF900BF6D1C0E98A842BADCB8
:1037A000002FB1D100200FB0BDE8F08F73656D61BF
:1037B00070686F7265000000252D2A2E7320762018
:1037C000202073757370656E64207468726561641F
:1037D0000A000000202D2D2D202D2D2D2D2D2D2DDD
:1037E0002D2D2D2D2D2D2D0A00000000252D2A2EEA
:1037F0002A7320253033642025643A00252D2A2E93
:103800002A7320253033642025640A002DE9F04F07
:10381000B5B04FF000090FF21C1B082327AA0121A5
:103820002FA8FFF7E9FC4FF0100A5A4651464348CB
:1038300001F010F9504600F0BFFB41A001F00AF979
:1038400000BF2FA94846FFF7ECFC81464FF0000867
:1038500065E027A850F82800A0F11405FCF784FCC7
:103860003490287C20F080009DF8C410884203D05A
:103870003498FCF77DFC50E09022294603A8FCF721
:10388000EDFC3498FCF774FC2C4694F83D0023467C
:103890001022514600903AA001F0DCF894F83C0068
:1038A00000F00F06012E03D138A001F0D3F815E087
:1038B000022E03D138A001F0CDF80FE01EB939A0D7
:1038C00001F0C8F80AE0042E03D139A001F0C2F8D3
:1038D00004E0032E02D139A001F0BCF8276B00E010
:1038E0007F1C38782328FBD0D4E90C10791A401AB1
:1038F00064214843616BB0FBF1F00290A16B206D35
:10390000CDE90001636A206BC01A636BC1181A46C7
:103910002DA0029B01F09EF800BF08F1010833982A
:10392000404596DCB9F1000F8BD1002035B0BDE8E1
:10393000F08F0000746872656164000040640008E4
:10394000202D2D2D20202D2D2D2D2D2D2D202D2DDB
:103950002D2D2D2D2D2D2D2D202D2D2D2D2D2D2DA4
:103960002D2D2D20202D2D2D2D2D2D20202D2D2DBB
:103970002D2D2D2D2D2D2D202D2D2D0A000000005B
:10398000252D2A2E2A73202533642000207265619C
:1039900064792020000000002073757370656E64E8
:1039A0000000000020696E697420202000000000E3
:1039B00020636C6F73652020000000002072756E1C
:1039C0006E696E670000000020307825303878205E
:1039D0003078253038782020202025303264252585
:1039E00020202030782530387820253033640A00B4
:1039F0002DE9F04790B000270FF2B409082303AA7D
:103A00000A210BA8FFF7F8FB4FF010084A46414681
:103A100029A001F01FF8404600F0CEFA30A001F0D6
:103A200019F800BF0BA93846FFF7FBFB0746002635
:103A30002DE003A850F82600A0F11404FCF794FB35
:103A40008246207C20F080009DF83410884203D00C
:103A50005046FCF78DFB19E05046FCF789FB2546E4
:103A6000D5E90B012B461022CDE90001414625A0E6
:103A700000F0F0FF687C00F0010018B127A000F012
:103A8000E9FF02E028A000F0E5FF00BF761C0F98D8
:103A9000B042CEDC002FC5D101F082FF04462146A2
:103AA00025A000F0D7FF002010B0BDE8F08700008F
:103AB00074696D6572000000252D2A2E7320207018
:103AC0006572696F64696320202074696D656F7524
:103AD0007420202020202020666C61670A000000EE
:103AE000202D2D2D2D2D2D2D2D2D2D202D2D2D2D20
:103AF0002D2D2D2D2D2D202D2D2D2D2D2D2D2D2D03
:103B00002D2D0A00252D2A2E2A73203078253038B5
:103B1000782030782530387820000000616374699F
:103B200076617465640A0000646561637469766136
:103B30007465640A0000000063757272656E74201B
:103B40007469636B3A3078253038780A00000000D9
:103B500000BFFEE710B5044600F0D4FBFFF7F8FF06
:103B600010BD000000B587B0224800680690012112
:103B70000820FDF723FD06A91F48FDF755FA20216F
:103B80001D48FDF730FB4FF480511B48FDF72BFB20
:103B90001848001D0068059001210420FDF70EFD66
:103BA00005A91648FDF740FA01210820FDF706FD9A
:103BB00001210846FDF702FD02210120FDF714FA5C
:103BC0000C4808300068049004A90B48FDF72CFA53
:103BD00008490C3103C9CDE9020102A8FDF7BAF981
:103BE000044814300068019001A8FDF7DFFB07B01E
:103BF00000BD0000F0610008000C01400008014019
:103C000010B51CA000F026FF1F4801781FA000F08F
:103C100021FF1D48007800F0010010B121A000F044
:103C200019FF1948007800F0020010B120A000F040
:103C300011FF1548007800F0080010B11FA000F037
:103C400009FF1148007800F0100010B11EA000F02C
:103C500001FF0D48007800F0800030B10A480C30B8
:103C600001681CA000F0F6FE02E01EA000F0F2FECB
:103C700010BD00006D656D206D616E616765206629
:103C800061756C743A0A000028ED00E05343425F0E
:103C9000434653525F4D4653523A3078253032589E
:103CA000200000004941434356494F4C200000008A
:103CB0004441434356494F4C200000004D554E535C
:103CC000544B4552522000004D53544B4552522004
:103CD000000000005343422D3E4D4D41523A2530E5
:103CE00038580A000A0000002DE9F04781460026F6
:103CF000002799F8000028B90021084600F0A8F82C
:103D0000BDE8F0871B48046827E006221AA1206856
:103D1000FCF7F0FA00B11FE0206800F10608484601
:103D2000FCF7D8FA8246524641464846FCF7E2FA8A
:103D300088B926B947463846FCF7CCFA06464146CC
:103D4000384602F076F90546B54200DA2E4641467D
:103D50000BA000F07FFE00BF08340A4800688442D0
:103D6000D3D327B132463946484601F076FB00BF2F
:103D7000C6E70000FC0200205F5F636D645F000027
:103D800025730A000003002038B504460D4601E003
:103D9000641C6D1E20782028FAD020780928F7D0DE
:103DA0000DB9002038BD6A4629462046FEF754FB6F
:103DB00008B90098F6E7204600E0401C0178202969
:103DC00002D001780029F8D100210170214603A01A
:103DD00000F040FE4FF0FF30E4E7000025733A208A
:103DE000636F6D6D616E64206E6F7420666F756EAB
:103DF000642E0A002DE9F04106460D4600271048C2
:103E0000046815E006220FA12068FCF773FA00B1E0
:103E10000DE02168881D2A463146FCF76BFA28B967
:103E2000A81D2168085C08B9676805E000BF083470
:103E3000064800688442E5D300BF3846BDE8F081FB
:103E4000FC0200205F5F636D645F000000030020E0
:103E500070B505460E460EA000F0FCFD1348046840
:103E60000DE0062212A12068FCF744FA00B105E03B
:103E70002068811D10A000F0EDFD00BF08340F4840
:103E800000688442EDD30EA000F0E4FD002070BD78
:103E900052542D546872656164207368656C6C209F
:103EA000636F6D6D616E64733A0A0000FC0200205E
:103EB0005F5F636D645F00002573200000030020D6
:103EC0000A000000012070472DE9F04782460E46A7
:103ED000904654460025002755E003E0002020705E
:103EE000641C6D1C2078202802D02078092801D17C
:103EF000B542F3D3082F12D326A000F0ABFD4FF04C
:103F0000000906E058F829102AA000F0A3FD09F1E5
:103F10000109B945F6D326A000F09CFD35E0B54275
:103F200000D332E0207822281CD1641C6D1C48F894
:103F300027407F1C09E020785C2804D16078222883
:103F400001D1641C6D1C641C6D1C2078222801D0DA
:103F5000B542F0D3B54200D317E000202070641CB6
:103F60006D1C10E048F827407F1C01E0641C6D1CAC
:103F70002078202804D02078092801D0B542F5D334
:103F8000B54200D301E0B542A7D300BF3846BDE833
:103F9000F0870000546F6F206D616E792061726749
:103FA000732021205765206F6E6C79205573653A18
:103FB0000A0000002573200010B5044602E004A0AA
:103FC00000F048FD201EA4F10104F8D110BD00004E
:103FD0002D00000030B51A4C436824681919884236
:103FE00015D04B889BB9174B1B6899420FD0164BC5
:103FF0001B688B4201D1144B18604B684360104B17
:104000001B68C31A0E4D4C682D682C44A3600C4CE1
:10401000836824681A19824211D053887BB90A4BED
:104020001B68834201D1084B1A6043685360044BFC
:104030001B68D31A024D44682D682C44A36030BD20
:1040400040020020440200204802002010B5402118
:104050000448FDF7C6F8012211030248FDF7C5F830
:1040600010BD0000000C014010B540210448FDF7D0
:10407000BAF800224FF480510148FDF7B6F810BDA0
:10408000000C01402DE9F04F86B00D469C46DDE95D
:10409000106401960F9B04F04008B8F1000F02D0A5
:1040A000DFF8708101E0DFF87081CDF8008004F066
:1040B0001008B8F1000F01D024F0010404F0010849
:1040C000B8F1000F02D04FF0300801E04FF02008A7
:1040D000C246002704F00208B8F1000F11D0002AF0
:1040E00002DA2D2752420CE004F00408B8F1000F68
:1040F00001D02B2705E004F00808B8F1000F00D02C
:104100002027002142B94FF0300B8846491C0DF1A1
:10411000080909F808B01DE01AE0E146B9F10A0FF4
:1041200008D14FF00A0BB2FBFBFE0BFB1E28B2FBC3
:10413000FBF202E002F00F08120900BFDDF8009068
:1041400019F808B08846491C0DF1080909F808B0AB
:10415000002AE2D1B14200DD0E469B1B04F011089B
:10416000B8F1000F10D117B1002B00DD5B1E06E087
:10417000A84203D24FF0200880F80080401CB3F121
:104180000008A3F10103F3DC27B1A84200D20770B5
:104190005B1E401C04F01008B8F1000F0AD104E0C7
:1041A000A84201D280F800A0401CB3F10008A3F19E
:1041B0000103F5DC06E0A84203D24FF0300880F896
:1041C0000080401CB046761E8845F4DC08E0A8421A
:1041D00005D20DF1080818F8018080F80080401C15
:1041E000B1F10008A1F1010104DDDDF80480B8F1AE
:1041F000000FECD106E0A84203D24FF0200880F86F
:104200000080401CB3F10008A3F10103F3DC06B009
:10421000BDE8F08F196300080863000808B50CE0DA
:104220004FF0FF326946054800F05BFD10B904A06D
:1042300000F010FC012001F0CDFAF1E7A8200020E9
:10424000656E7465722050574D20636F6E74726F87
:104250006C0A0A001FB50A200821CA01074BCDE9E4
:104260000032CDE902100023054A06A1084801F0FA
:1042700097FA074801F0FEFA1FBD0000282400202D
:104280001D42000870776D5F7468726564000000FD
:10429000282800201CB514200A214FF400730022A6
:1042A000CDE90010044905A001F0BBF90446204601
:1042B00001F0E0FA1CBD0000553B00086D61696E1D
:1042C0000000000070B504460D4604FB05F000F048
:1042D00033FC06462EB104FB05F20021304600F007
:1042E000D9FD304670BD000010B5044C02E02068D6
:1042F0008047241D02488442F9D310BD8864000819
:104300008C64000810B5044C02E020688047241D2E
:1043100002488442F9D310BD8C640008BC640008D4
:1043200010B5FBF721FF044604480088401C00B28A
:10433000024908802046FBF71BFF10BDC802002081
:1043400070B504460D4616462A460421204600F064
:10435000F1FE6674204600F074FB0020606270BDC0
:104360002DE9FF4705460E461746DDF8308026B991
:104370004FF0FF3004B0BDE8F0874FF0FF3901F097
:1043800051FA04460020A063FBF7EEFE824607F0D8
:10439000010030B1686A3040B0420AD14FF00009E4
:1043A00007E007F0020020B1686A304008B14FF022
:1043B0000009B9F1000F0DD1B8F1000F03D0686A00
:1043C0003040C8F8000007F0040088B3686AB043C2
:1043D00068622DE0039818B96FF00100A06327E030
:1043E000666484F848706A7C214605F11C0000F080
:1043F000F2FA0398002809DD03AA002104F1540011
:1044000001F02AFB04F1540001F06AFB5046FBF76F
:10441000AFFE00F0C3FEA06B08B1A06BAAE7FBF7EC
:10442000A3FE8246B8F1000F02D0606CC8F800000D
:104430005046FBF79DFEA06B9CE72DE9F047044634
:104440000F461FB94FF0FF30BDE8F0874FF000086E
:10445000FBF78AFE8246606A3843606204F11C0002
:1044600000F035FB002838D1E66932E0A6F11C05E2
:104470004FF0FF3995F8480000F0010040B1686C3A
:10448000616A0840696C884211D14FF000090EE062
:1044900095F8480000F0020048B1686C616A084075
:1044A00028B1686C616A084068644FF0000936689A
:1044B000B9F1000F0DD195F8480000F0040018B1D3
:1044C000606A696C88436062284601F08DF94FF09C
:1044D000010804F11C008642C8D15046FBF748FE93
:1044E000B8F1010F01D100F059FE0020ACE7000047
:1044F00010B5FBF739FE04460C480088401E00B298
:104500000A4908800846B0F9000000280ADC0020AB
:1045100008802046FBF72CFE0548006828B100F013
:104520003DFE02E02046FBF723FE10BDC80200203E
:10453000CC02002070B5054605B970BD1D48006865
:10454000854203D31C480068854200D3F5E7A5F1F6
:104550000C044FF0FF31194800F0E4FE608818B1F8
:104560002088B0F5F55F08D015A000F073FA238815
:104570006288214619A000F06DFA002060804FF497
:10458000F550208021480068844201D21F48046011
:10459000084960680968611A401A1D490968081AC3
:1045A0001B4908602046FFF715FD044800F09DFEFA
:1045B00000BFC2E74002002044020020C82A0020B9
:1045C000746F206672656520612062616420646199
:1045D000746120626C6F636B3A0A00006D656D3A1E
:1045E000203078253038782C207573656420666C0F
:1045F00061673A2025642C206D6167696320636FD1
:1046000064653A203078253034780A00480200206A
:1046100050020020004870471403002000487047F3
:104620001413002070B5FDF7D1F84FF4A060FCF72B
:10463000F5FE0C4800684FF47A71B0FBF1F42046A7
:10464000FDF7B2FE4FF4E13001F004FDFFF74CFE40
:10465000FFF7E4FF0446FFF7DDFF0546214600F0C3
:1046600017FF70BD0000002010B54FF0FF3420216F
:104670000D48FDF72AFD40B10B48FDF7C9FD044682
:1046800020210948FDF70CFD0BE008210648FDF745
:104690001CFD18B108210448FDF702FD0A2001F0B5
:1046A00099F8E0B210BD00000038014010B5044692
:1046B000FFF736FE19E020780A280AD10D210E48AE
:1046C000FDF7ABFD00BF40210B48FDF7FEFC0028C5
:1046D000F9D014F8011B0848FDF79FFD00BF4021E9
:1046E0000548FDF7F2FC0028F9D020780028E2D137
:1046F000FFF7FEFE10BD00000038014070B5054612
:104700002C1D3048006838B128462E490968884772
:10471000064606B970BD00BF2BA0E16B00F09AF908
:104720002DA0216A00F096F92FA0616A00F092F99D
:1047300031A0A16A00F08EF933A0E16A00F08AF995
:1047400035A0216800F086F937A0616800F082F991
:1047500039A0A16800F07EF93BA0E16800F07AF989
:104760003DA0216900F076F93FA0616900F072F97F
:1047700041A0A16900F06EF943A0E16900F06AF977
:1047800045A0216B00F066F947A0616B00F062F96B
:1047900049A0A16B00F05EF9287800F0040048B150
:1047A00001F040F80646314647A000F053F9FFF704
:1047B0002DF802E04CA000F04DF9FEF73FFB00BFE2
:1047C000FEE70000F80200207073723A203078256E
:1047D0003038780A000000007230303A20307825F6
:1047E0003038780A000000007230313A20307825E5
:1047F0003038780A000000007230323A20307825D4
:104800003038780A000000007230333A20307825C2
:104810003038780A000000007230343A20307825B1
:104820003038780A000000007230353A20307825A0
:104830003038780A000000007230363A203078258F
:104840003038780A000000007230373A203078257E
:104850003038780A000000007230383A203078256D
:104860003038780A000000007230393A203078255C
:104870003038780A000000007231303A2030782554
:104880003038780A000000007231313A2030782543
:104890003038780A000000007231323A2030782532
:1048A0003038780A00000000206C723A20307825F9
:1048B0003038780A000000002070633A20307825F4
:1048C0003038780A00000000686172642066617503
:1048D0006C74206F6E207468726561643A20257371
:1048E0000D0A0D0A0000000068617264206661759F
:1048F0006C74206F6E2068616E646C65720D0A0DB9
:104900000A000000F0B504460D461646301D20F0A2
:10491000070040380146002203E00C4F41F82270A6
:10492000521C102AF9D30D624FF0000CC1F824C0BC
:10493000C1F828C0C1F82CC0C1F830C04B638C63EB
:104940004FF0807CC1F83CC0F0BD0000EFBEADDE92
:1049500010B5FBF709FC044604480078401C0349E5
:1049600008702046FBF704FC10BD00003C0200204C
:1049700010B5FBF7F9FB044604480078401E0349D4
:1049800008702046FBF7F4FB10BD00003C0200203D
:1049900070B504462068A0F11C05284600F024FFED
:1049A000002070BD70B505460EE0FBF7DDFB064646
:1049B0002868A0F11C044FF0FF30A063204600F0EF
:1049C00013FF3046FBF7D4FB284600F080F80028A0
:1049D000EBD0002070BD2DE9F04105460C46904615
:1049E000204600F05DFFB8F1000F03D0B8F1010FD1
:1049F00023D105E004F11C01284600F061F81CE019
:104A00002E680FE0A6F11C0794F83D0097F83D10C2
:104A1000884206DA04F11C0107F11C0000F050F88E
:104A200002E03668AE42EDD100BFAE4204D104F1DF
:104A30001C01284600F044F800BF00BF0020BDE87C
:104A4000F08110B5044604F11C0000F01BF80020B2
:104A500010BD00000FB438B505A800907F210848AC
:104A6000009B049A01F0D0F804467F2C00D97F24E3
:104A70000348FFF71BFE0020009038BC5DF814FBD4
:104A8000482A002040600060704740600060704726
:104A90004060006070470268516002680A6001600F
:104AA000486070470268516002680A6001604860AF
:104AB00070470268516002680A6001604860704790
:104AC0004268116042684A60416008607047014670
:104AD0000868884201D1012070470020FCE70146A8
:104AE0000868884201D1012070470020FCE7014698
:104AF0000868884201D1012070470020FCE7014688
:104B000000200A4601E01268401C13688B42FAD16B
:104B10007047D0E900215160D0E900121160406077
:104B200000607047D0E900215160D0E900121160A7
:104B300040600060704700002DE9F041054615B95E
:104B40000020BDE8F081E81C20F003054E48006815
:104B5000854201D90020F4E70C2D00D20C254FF03E
:104B6000FF314A4800F0DEFB4948006849490968BE
:104B7000461A7EE04748006884196088002874D18E
:104B800006F10C006168081AA8426ED306F10C0009
:104B90006168091A05F11800814230D306F10C0052
:104BA00000EB05083B48006800EB08074FF4F550A0
:104BB00038800020788060687860BE60C4F8048027
:104BC000012060803048796800680C30814205D04F
:104BD0003049786809680844C0F808802E480168A0
:104BE00005F10C0008442C4908602C48006809684D
:104BF000884219D2284800682849086014E001203A
:104C00006080244960680968611A401A224909686D
:104C1000084421490860214800680968884203D295
:104C20001D4800681D4908604FF4F5502080184861
:104C30000068844212D107E01548006840681549B1
:104C4000096808441249086011480068408828B182
:104C50000F480068124909688842EDD10B4800F0FE
:104C600044FB04F10C006CE7FFE70A48006830449D
:104C7000466805480068401BB0423FF67BAF0348DA
:104C800000F033FB00205CE74C020020C82A002023
:104C90004802002040020020500200205402002060
:104CA000440200202DE9F04104460D4616461F46F9
:104CB000DDF818802A460521204600F03BFA84F8EA
:104CC00011802046FFF7BDFE6662278500206085C3
:104CD000A085E08504F13000FFF7D4FE0020BDE898
:104CE000F0812DE9F74304460E46002700F09AFDB7
:104CF0000546FBF739FA8046608D38B9029828B925
:104D00004046FBF735FAB81EBDE8FE833AE00020C6
:104D1000A863029830B94046FBF72AFA6FF0010009
:104D2000A863F1E7627C294604F11C00FFF753FEFB
:104D3000029800280CDD00F033FE074602AA00218D
:104D400005F1540000F088FE05F1540000F0C8FEA3
:104D50004046FBF70DFA00F021FAA86B08B1A86BEA
:104D6000D2E7FBF701FA8046029800280ADD00F03E
:104D700017FEC71B0298C01B02900298002801DA98
:104D800000200290608D0028C1D0E18D606A50F84B
:104D900021003060E08D401CE085E08D218D88424F
:104DA00001DB0020E085608D401E608504F130004D
:104DB000FFF78DFE50B904F13000FFF7E9FD4046E2
:104DC000FBF7D6F900F0EAF900209DE74046FBF733
:104DD000CFF9002098E72DE9F0410F46164604462A
:104DE0003D463346102B28D305F0030C04F003088E
:104DF0004CEA080CBCF1000F1FD121462A4610E0F6
:104E000052F804CB41F804CB52F804CB41F804CB60
:104E100052F804CB41F804CB52F804CB41F804CB50
:104E2000103B102BECD204E052F804CB41F804CB39
:104E30001B1F042BF8D20C46154603E015F801CBD6
:104E400004F801CBB3F1000CA3F10103F6D1BDE8E6
:104E5000F08170B50C46014623468B4210D29D1856
:104E60008D420DD91144134405E05D1E2B462E786A
:104E70004D1E29462E70151EA2F10102F5D108E043
:104E800003E013F8015B01F8015B151EA2F10102BA
:104E9000F7D170BDF0B50C460546E6B2042A15D32D
:104EA00000F0030797B9014646EA062343EA0343A5
:104EB00004E008C108C108C108C1103A102AF8D29C
:104EC00001E008C1121F042AFBD20D4601E005F8DB
:104ED000016B171EA2F10102F9D1F0BD2DE9F047D7
:104EE0000746884691469A463946062000F0C2F8A1
:104EF000044614B92046BDE8F08784F811A0204686
:104F0000FFF79FFD08F1030020F003002085A4F8BF
:104F10002A90218D091D628D01FB02F0FFF70CFE26
:104F20006062606A20B9204600F018F80020E2E7CD
:104F3000002020636063A063002508E0208D001D31
:104F4000616A05FB0016A06B3060A6636D1C608D66
:104F5000A842F3DC0020A0852046CCE710B504462B
:104F600004F11C00FFF71EFD606AFFF7E3FA20461C
:104F700000F0AAF8002010BD2DE9FF4704460F46B7
:104F800090464FF0000900F04DFC0546FBF7ECF8A9
:104F90008246A08D48B9039838B95046FBF7E8F827
:104FA0006FF0010004B0BDE8F0873CE00020A8638A
:104FB000039830B95046FBF7DBF86FF00100A863A7
:104FC000F0E7627C294604F11C00FFF704FD03981A
:104FD00000280CDD00F0E4FC814603AA002105F165
:104FE000540000F039FD05F1540000F079FD504601
:104FF000FBF7BEF800F0D2F8A86B08B1A86BD1E7B8
:10500000FBF7B2F88246039800280CDD00F0C8FCDC
:10501000A0EB09090398A0EB09000390039800286E
:1050200001DA00200390A08D0028BFD0266B3068E5
:105030002063606BB04201D100206063A08D401EF0
:10504000A0855046FBF794F8208D404501D2208D75
:1050500000E040460246311D3846FFF7BCFEFBF734
:1050600083F88246A06B3060A6635046FBF780F859
:10507000002097E72DE9F04106460F46304600F044
:1050800045F80546E868FFF757FD044614B90020C7
:10509000BDE8F08100212046EA68FFF7FBFE267498
:1050A0000020607410223946204600F0D6F9FBF744
:1050B0005BF8804604F11401281DFFF7ECFC404624
:1050C000FBF756F82046E3E770B50446002020744D
:1050D000FBF74AF8054604F11400FFF71AFD2846CD
:1050E000FBF746F82046FFF725FA70BD70B5044679
:1050F00000202074FBF738F8054604F11400FFF790
:1051000008FD2846FBF734F870BD00000246002178
:105110000AE0074800EB01100078904203D10448F0
:1051200000EB01107047491C0729F2DB0020F9E76A
:10513000580200202DE9F04704460D46904600260F
:105140002846FFF7E3FF0746FFF7EAF87E6802E02C
:10515000A6F114003668381D8642F9D1FFF7C8F968
:1051600045F08000207410224146204600F075F979
:10517000FAF7FAFF814604F11401381DFFF78BFCA2
:105180004846FAF7F5FFBDE8F0870146087C00F0D5
:10519000800008B1012070470020FCE72DE9F041B4
:1051A000FAF7E2FF07461848008838BB174800683E
:1051B000FDF712F9461E164850F83600A0F11C04FF
:1051C00014480068844218D013490E7011480568CD
:1051D00004601248007850B904F1240105F124005C
:1051E000FAF7C9FF3846FAF7C3FFBDE8F08104F1CA
:1051F000240105F12400FAF7BEFF00BF3846FAF794
:10520000B7FF00BFF1E70000C8020020D402002071
:10521000F02A0020CC020020D00200203C02002016
:1052200070B50446FAF7A0FF054614F83C0F20F0CD
:105230000F0040F00100207062783C3C0A4B03EB09
:10524000C20004F11C014268116042684A6041607A
:10525000086000BF0549206C0968084303490860DD
:105260002846FAF785FF70BDF02A0020D4020020FE
:1052700070B50446FAF778FF054604F11C00D0E942
:1052800000215160D0E9001211604060006000BF51
:1052900094F83D10094A02EBC1000168814201D136
:1052A000012100E0002129B10548216C00688843F4
:1052B000034908602846FAF75BFF70BDF02A00201A
:1052C000D40200202DE9F04104460D4616461F4643
:1052D0002A4602212046FFF72DFF2046FFF7B1FBAB
:1052E000A68467740020BDE8F08170B504460025EF
:1052F000FAF73AFF064604F11C00FFF7E8FB28B96D
:1053000004F11C00FFF744FB012502E0A08C401CC7
:10531000A0843046FAF72CFF012D01D1FFF73EFFA4
:10532000002070BD73B50546FAF71EFF0646A88C2F
:10533000002806DDA88C401EA8843046FAF718FF26
:1053400028E0019828B93046FAF712FF6FF0010003
:105350007CBD00F067FA04460020A0636A7C214609
:1053600005F11C00FFF737FB0198002809DD01AAB1
:10537000002104F1540000F06FFB04F1540000F030
:10538000AFFB3046FAF7F4FEFFF708FFA06B08B159
:10539000A06BDDE70020DBE708B509A0FFF75AFBAB
:1053A0000AA0FFF757FB12A0032301221946009021
:1053B00012A0FFF74FFB19A0FFF74CFB08BD000040
:1053C0000A205C207C202F0A000000002D2052546F
:1053D000202D2020202020546872656164204F70A9
:1053E00065726174696E672053797374656D0A0024
:1053F000417567203131203230323100202F207C3E
:10540000205C202020202025642E25642E25642069
:105410006275696C642025730A0000002032303008
:1054200036202D203230313920436F707972696710
:1054300068742062792072742D74687265616420CA
:105440007465616D0A00000001460A4600E0521CC6
:1054500010780028FBD1501A704770B50346A2B1EE
:1054600018460C4600BF14F8016B00F8016B3EB9FA
:1054700002E0002500F8015B551E2A1EF9D102E06A
:10548000551E2A1EEFD100BF00BF184670BD000098
:105490002DE9F04105460E46E81C20F0030726F0F2
:1054A0000308B8F1180F09D9A8F11800B84205D3BC
:1054B000A8EB070018381E49086006E03246294666
:1054C0001CA0FFF7C7FABDE8F0812948076004680F
:1054D0004FF4F5502080164800680C3060600020C2
:1054E000A06060802249606809680844214908601A
:1054F0004FF4F5500968088001201E49096848806A
:105500000B4800680C301B4909684860084800686F
:105510000C301849096888600023012216A1184838
:10552000FFF7D0FE124800681649086000BFCAE7BE
:105530004C0200206D656D20696E69742C206572C7
:10554000726F7220626567696E2061646472657350
:105550007320307825782C20616E6420656E64207D
:105560006164647265737320307825780A000000E6
:1055700040020020440200206865617000000000C5
:10558000C82A00204802002010B500200B490880DE
:10559000002405E00A4901EBC400FFF776FA641C19
:1055A000202CF7DB1F2007490870002006490860FF
:1055B000064908600648FFF768FA10BDC8020020D7
:1055C000F02A0020D0020020CC020020D4020020CB
:1055D000D802002070B508480068FCF7FDFE451EA3
:1055E000064850F83500A0F11C040548046004F199
:1055F0002400FAF7EEFD70BDD4020020F02A00204E
:10560000CC02002010B5002405E0044901EBC400E1
:10561000FFF73EFA641C002CF7D010BDE00200201A
:1056200070472DE9FF5F06460F4690461D46DDE9AF
:105630000EAB31460120FFF71DFD8146B9F1000F89
:1056400003D1002004B0BDE8F09F2846FFF774FAAC
:10565000044624B94846FFF737FD0020F2E74346E9
:105660003A46314648468DE8300CFCF72BFF484659
:10567000E8E7000070B513480468FAF775FD0546C1
:105680002046FFF7F5FD042084F83C0004F15400A7
:1056900000F0FEF92046FFF778FD012806D1D4F886
:1056A000880018B92046FFF721FD04E004F11C0131
:1056B0000548FFF7F7F92846FAF75AFDFFF76EFDA0
:1056C00070BD0000CC020020D802002001E000F0F4
:1056D00001F8FCE770B53CE0FAF746FD0546FCF73B
:1056E000B1FE40B31E480068A0F11C0404F11C0088
:1056F000D0E900215160D0E90012116040600060E3
:1057000000BFFEF70DFED4F8880018B12046D4F88B
:10571000881088472046FFF738FD012808D1204629
:10572000FFF7E4FCFEF7E4FE2846FAF721FD70BD22
:10573000FEF7DEFE03E02846FAF71AFDF7E72846F3
:10574000FAF716FD206BFEF7F5FE2046FFF7BCFCCE
:1057500000BFFCF777FE0028BED100BFE7E70000DE
:10576000D80200201FB520201F21C200074BCDE921
:105770000032CDE902100023054A06A1074800F0D7
:105780000FF8064800F076F81FBD000048290020F9
:10579000CD5600087469646C65000000B8280020CC
:1057A0002DE9FF5F05460C4616461F46DDE910ABA6
:1057B000DDE90E89224601212846FFF7BBFC3B4666
:1057C0003246214628468DE8000FFCF77BFE04B0E8
:1057D000BDE8F09F70B50446204600F0C5F80546C8
:1057E000284600F025F870BD70B5044694F83C00DA
:1057F00000F00F00022802D04FF0FF3070BDFAF722
:10580000B3FC054604F11C00FFF78CF904F15400C9
:1058100000F0E2F92846FAF7ABFC2046FFF700FD5E
:105820000020EBE70148006870470000CC02002030
:1058300031B5FAF799FC05460D480468204600F09A
:105840002FF86A46002104F1540000F005F904F134
:10585000540000F045F92846FAF78AFCFFF79EFC51
:10586000A06B801C08B90020A063002038BD000098
:10587000CC02002010B504463C34A07860706178FA
:10588000012088406060022004F83C092046FFF7B0
:10589000ABFFFFF7C7FF08B1FFF780FC002010BD8A
:1058A00070B5044694F83C0000F00F00012802D0C7
:1058B0004FF0FF3070BDFAF757FC054694F83C00F6
:1058C00020F00F0040F0020084F83C002046FFF773
:1058D000CFFC04F1540000F07FF92846FAF748FCA9
:1058E0000020E7E770B5044625466FF00100A86385
:1058F00005F11C00FFF716F92846FFF791FCFFF7AA
:105900004DFC70BD70B5FAF72FFC054614480468CD
:1059100094F83C0000F00F0001281CD1D4E90710D6
:10592000814218D004F11C00FFF7FCF894F83D20E8
:105930000C4B03EBC20004F11C0142681160426889
:105940004A604160086000BF2846FAF711FCFFF783
:1059500025FC002070BD2846FAF70AFC0020F9E774
:10596000CC020020F02A00200146002902DA4FF084
:10597000FF3014E04FF47A7291FBF2F24FF47A7335
:1059800002FB03F01A4691FBF2F302FB13124FF4F1
:105990007A735A4302F2E73292FBF3F210447047F3
:1059A00001480068704700003802002010B50A481E
:1059B0000068401C08490860FFF734FF0446206D6A
:1059C000401E2065206D18B9E06C2065FFF79AFF36
:1059D00000F004F810BD00003802002070B5FFF799
:1059E000DFFF0546FAF7C0FB064628E019480068C5
:1059F000A0F11C04206B281A6FF0004188421DD2D0
:105A00002046FCF7C2FDD4E909108847FFF7C8FF1C
:105A10000546607C00F0020058B1607C00F0010097
:105A200038B1607C20F001006074204600F058F826
:105A300005E0607C20F00100607400E004E00548AF
:105A4000FFF74DF80028D1D000BF3046FAF790FBA1
:105A500070BD0000E0020020034649B1012904D0D6
:105A6000022908D0032910D10AE0D86A10600CE09E
:105A70001068D86209E0587C20F00200587404E0F5
:105A8000587C40F00200587400BF00BF00207047EF
:105A900070B50446FAF768FB05462046FCF775FD2D
:105AA0002846FAF765FB2046FFF720FB002070BD73
:105AB0002DE9F84307460C4615461E46DDE90889E0
:105AC00022460A213846FFF735FB4346324629462F
:105AD0003846CDF80090FCF737FDBDE8F8830000AC
