:020000040800F2
:10000000E02A002045010008F91200080F0200084C
:10001000F5120008E9070008772100080000000039
:10002000000000000000000000000000251600088D
:10003000A30E000800000000970100081117000837
:100040005F0100085F0100085F0100085F01000810
:100050005F0100085F0100085F0100085F01000800
:10006000A50E00085F0100085F0100085D0A000896
:100070005F0100085F0100085F0100085F010008E0
:100080005F0100085F0100085F0100085F010008D0
:100090005F0100085F0100085F0100085F010008C0
:1000A0005F0100085F0100085F0100085F010008B0
:1000B0005F010008251800085F0100085F010008C3
:1000C0005F0100085F0100085F0100085F01000890
:1000D0005F0100086D1F00085F0100085F01000854
:1000E0005F0100085F0100085F0100085F01000870
:1000F0005F0100085F0100085F0100085F01000860
:100100005F0100085F0100085F0100085F0100084F
:100110005F0100085F0100085F0100085F0100083F
:100120005F0100085F0100085F0100085F0100082F
:10013000DFF80CD000F0EEF8004800478F0300080D
:10014000E02A00200648804706480047FEE7FEE711
:10015000FEE7FEE7FEE7FEE7FEE7FEE7FEE7FEE777
:10016000C517000831010008EFF3108072B6704720
:1001700080F310887047334A1368012B04D04FF086
:1001800001031360304A1060304A116030484FF06C
:10019000805101607047EFF3108272B62948016800
:1001A00091B14FF0000101602748016829B1EFF3D8
:1001B000098121E9F00F0068016024490968096894
:1001C000B1E8F00F81F3098882F310884EF0040E35
:1001D00070471E4908601C494FF00000086019492B
:1001E0004FF0010008601B484FF47F01D0F8002059
:1001F00041EA0201016016484FF080510160164843
:100200000068006880F3088861B662B670471EF027
:10021000040F0CBFEFF30880EFF3098020E9F00F23
:1002200040F804ED1EF0040F0CBF80F3088880F343
:10023000098800B504F06EFA5DF804EB4EF0040E88
:100240007047000000030020F8020020FC0200209C
:1002500004ED00E020ED00E008ED00E040EA0103DD
:100260009B0703D009E008C9121F08C0042AFAD26C
:1002700003E011F8013B00F8013B521EF9D2704730
:10028000D2B201E000F8012B491EFBD270470022D8
:10029000F6E710B513460A4604461946FFF7F0FF85
:1002A000204610BD421E12F8013F002BFBD111F871
:1002B000013B02F8013B002BF9D1704710B5044611
:1002C00004E00B7800F8013B03B1491C521EF8D240
:1002D000204610BD421C10F8011B0029FBD1801ADA
:1002E0007047034611F8012B00F8012B002AF9D1C1
:1002F0001846704730B505460020034600E05B1CF9
:10030000934205D2EC5CC85C201A01D1002CF6D1D6
:1003100030BD0000064C074D06E0E06840F00103E8
:1003200094E8070098471034AC42F6D3FFF704FF77
:1003300088650008A865000870B58C1810F8015B86
:1003400015F0070301D110F8013B2A1106D110F86E
:10035000012B03E010F8016B01F8016B5B1EF9D172
:100360002B0705D40023521E0DD401F8013BFAE7F8
:1003700010F8013BCB1A921C03E013F8015B01F863
:10038000015B521EF9D5A142D8D3002070BD10B533
:1003900005F0E6FD002010BD38B500F039F900F099
:1003A0005FF800F0C5F800200A23074A07A1009073
:1003B000084804F083FC04461CB107A004F056FB77
:1003C00038BD00BFFCE700004C1B00206D625F6180
:1003D00064630000141B0020696E6974206164630B
:1003E000206D61696C626F78206661696C65640A72
:1003F0000000000010B5FFF7CFFF002010BDF0B5E2
:1004000003460C4600250021002700260A2A01DDAC
:100410000220F0BD002106E003EB011030F81400CB
:100420000544481C81B29142F6DBB5FBF2F086B27E
:100430003046EEE721B1826842F00102826003E0BB
:10044000826822F001028260704721B1826842F422
:100450008072826003E0826822F48072826070475A
:1004600000B58DB00121084601F022F8104800F0D7
:1004700035FC4FF4C06000F079FF2C220D4902A832
:10048000FFF7ECFE02A90A4800F0EDFC09482C3009
:100490000068019001A800F031FF01220221044808
:1004A00000F0D8FC0121024800F00CFC0DB000BDAA
:1004B00008000240D8610008014600208A6802F066
:1004C00004020AB1012000E000207047014600202C
:1004D0008A6802F008020AB1012000E0002070479B
:1004E00030B502460020002350680F4C20400D79A3
:1004F0000C6844EA05242043506090680B4C20406F
:10050000D1E902542C434D7944EA450420439060DC
:10051000D06A20F470000C7C641EE4B2234340EAED
:100520000350D06230BD0000FFFEF0FFFDF7F1FF89
:1005300000B585B04FF4004000F0AEFF0121480245
:1005400000F0E6FF0020009001208DF804008DF8F7
:1005500005004FF4602002900020039008208DF8E1
:10056000100069462948FFF7BBFF0523012200213F
:10057000264800F05FF8052302220121234800F0FD
:1005800059F8052303220221204800F053F80523DF
:10059000042203211D4800F04DF805231A460421CA
:1005A0001A4800F047F8052306221946174800F0BC
:1005B00041F8052307220621144800F03BF80523E3
:1005C00008220721114800F035F801210F48FFF7F4
:1005D0003CFF01210D48FFF72DFF0C4800F086F885
:1005E00000BF0A48FFF772FF0028FAD1074800F061
:1005F0008DF800BF0548FFF75FFF0028FAD1012101
:10060000024800F078F805B000BD00000024014069
:1006100008B50121042000F07BFFFF20ADF80000A9
:1006200000208DF803006946014800F0C5FC08BDB4
:1006300000080140F0B504460D4600200021092DB8
:1006400011DDE068A5F10A0606EB4607072606FA63
:1006500007F18843A5F10A0606EB460603FA06F100
:100660000843E0600CE0206905EB4507072606FA21
:1006700007F1884305EB450603FA06F108432061BC
:10068000072A0FDA606B561E06EB86071F2606FA4E
:1006900007F18843561E06EB860605FA06F1084365
:1006A000606322E00D2A0FDA206BD61F06EB860767
:1006B0001F2606FA07F18843D61F06EB860605FAC1
:1006C00006F10843206310E0E06AA2F10D0606EB94
:1006D00086071F2606FA07F18843A2F10D0606EBEE
:1006E000860605FA06F10843E062F0BD816841F034
:1006F00008018160704721B1826842F4A0028260E3
:1007000003E0826822F4A00282607047816841F0B1
:10071000040181607047000070B505460E46002454
:100720002D4800780A2828DA00BF09E036F81400BE
:100730002949097805EB011121F81400601CC4B2A5
:10074000082CF3DB24480078401C23490870084635
:1007500000780A283FD1002409E0082221462846D3
:10076000FFF74DFE1D4921F81400601CC4B2082C8F
:10077000F3DB01201A4908702DE01A4800780A2896
:1007800026DA002409E036F814001649097805EB4A
:10079000011121F81400601CC4B2082CF3DB002402
:1007A00009E0082221462846FFF729FE0B4921F8D7
:1007B0001400601CC4B2082CF3DB0A480078401C0B
:1007C00008490870084600780A2801D100200870FE
:1007D00001200349087070BD71000020301A00200C
:1007E000310000207200002000BFFEE70A480B49DC
:1007F0000860002008710A204871002088714FF4B9
:100800007A700881002088720220C8720120087363
:100810000320487370470000DD120008D41C00203C
:1008200010B540F2C27022494880224880880128D1
:100830003DD10846007C012819D10846007D0028DA
:1008400032D10846C088498888420BDA18480088A7
:10085000401E17490880088805F098FB00201449BD
:10086000887421E001201249887408751CE0104842
:10087000007C022818D10E48007DA8B90C480089D8
:100880000B49498888420BDA09480088401E08490C
:100890000880088805F07AFB00200549887403E089
:1008A000012003498874087500200249888010BD22
:1008B000180000202013002004E000F029F80A208E
:1008C00004F094FFF9E700001FB5142004218A0109
:1008D000074BCDE90032CDE902100023054A06A1FD
:1008E0000A4804F069FF094804F0D0FF1FBD00006A
:1008F00030190020B9080008434852475F4354525A
:100900004C5F74687265616400000000A0180020EC
:1009100010B50C48007810B902F08CF810E00948C6
:10092000007801280CD10848407C042802D100F04E
:1009300067FD05E00448407C052801D1FFF770FF02
:1009400010BD0000140000201800002030B58DB04C
:1009500005460C4609A801F0A9FA05A801F045FAD8
:100960000121C80200F0D4FD0121082000F0D0FDD3
:100970000121082000F0CCFD4FF40050ADF830000C
:1009800018208DF8330003208DF832000CA9304870
:1009900000F012FB4FF48070ADF8300018208DF895
:1009A000330003208DF832000CA92A4800F004FB24
:1009B000ADF82850ADF824404FF40070ADF82A008F
:1009C0000020ADF8260009A9234801F01DFA0020F7
:1009D000ADF80400ADF80600ADF80800ADF80A0067
:1009E000ADF80C00ADF80E004FF48040ADF81000EB
:1009F00001A9194800F058FF05A801F0F6F9702088
:100A0000ADF814000420ADF818000120ADF8160070
:100A10000020ADF81C00ADF81E00ADF82000ADF8C8
:100A2000220005A90C4801F085F808210A4801F0C8
:100A3000CDF809484430008840F0100006494431A0
:100A400008800121044800F023FF0DB030BD0000F4
:100A5000000C014000080140002C014010B50220AC
:100A600000F0E2F900287DD083480088A0B900207A
:100A700082490860824908808249088004218248AE
:100A800000F06EFB28B901207B4908807C49088072
:100A900002E000207A49088079480088012804D1C2
:100AA00076480068401C7549086073480088012832
:100AB00011D17248006844F6206188420AD30421AB
:100AC000714800F04DFB002804D103F0B1FB022077
:100AD00069490880CBE068480088022830D10A22A2
:100AE00007216A4801F0FEFD6949088063480068F3
:100AF000B0F5FA4FEED308460088B0F51B7F08DA50
:100B000003F088FB634800F06FFC00205A4908801E
:100B100012E05F48008840F22951884206DC5D48B7
:100B200000F054FC03205449088005E0594800F0C7
:100B30004DFC03205049088000205049086096E091
:100B40004D4800880328C5D10A2207214F4801F0EB
:100B5000C9FD4F4908804D494F4801F0B5FD4B494B
:100B60004E4800E086E0FFF7D7FD4D48407C042862
:100B700035D14B48C07C28BB4A480088012867DB38
:100B80004048408898B9444801883E480288801D02
:100B900020F81210404801883A48028800F5997000
:100BA00020F8121037480088401C364908803D481C
:100BB000008802284CDB0120324948800020394956
:100BC000088045E03648C07C012841D1354800887E
:100BD00001283DDB4FF4F87001F052FF38E0304857
:100BE000407C052834D12E48007D28BB2D48008844
:100BF00001282DDB2348408898B9274801882148DF
:100C00000288801D20F81210234801881D480288A0
:100C100000F5997020F812101A480088401C1949F4
:100C2000088020480088022812DB012015494880EE
:100C300000201C4908800BE01948007D012807D1DD
:100C400018480088012803DB40F2C27001F018FF49
:100C50000F480088B0F51B7F08DA03F0DBFA0D4877
:100C600000F0C2FB00200449088000E000BF022021
:100C700000F01AF810BD00005C0000208000002089
:100C80008400002020130020000C0140401A0020A6
:100C9000041B0020002C0140301A0020501A0020B4
:100CA000180000209000002000F0805111B103498D
:100CB000086001E0024948607047000004040240F7
:100CC0000000024021B1026842F00102026004E02B
:100CD00002684FF6FE731A400260704701684FF6D3
:100CE000FE72114001600021016041608160C160BD
:100CF0004B49884208D14A490839496841F00F01F7
:100D0000474A083A51608AE045491431884208D17F
:100D100043490839496841F0F001414A083A5160B5
:100D20007DE03F492831884208D13D49083949686A
:100D300041F470613A4A083A516070E038493C31F8
:100D4000884208D136490839496841F47041344A2B
:100D5000083A516063E032495031884208D1304945
:100D60000839496841F470212D4A083A516056E02B
:100D70002B496431884208D129490839496841F42E
:100D80007001274A083A516049E025497831884284
:100D900008D123490839496841F07061204A083A6E
:100DA00051603CE01F49884206D1011F096841F0AB
:100DB0000F01021F116032E01A491431884208D134
:100DC0001849091F096841F0F001164A121F116005
:100DD00025E014492831884208D11249091F0968C1
:100DE00041F470610F4A121F116018E00D493C3147
:100DF000884208D10B49091F096841F47041094A2A
:100E0000121F11600BE007495031884207D1054994
:100E1000091F096841F47021024A121F11607047CE
:100E2000080002400804024001460020002201F0B0
:100E3000805313B1054B1A6801E0054B1A6802EAAA
:100E400001030BB1012000E00020704700040240C4
:100E5000000002401AB103680B43036002E003681C
:100E60008B430360704710B50022026847F6F073A9
:100E70009A430C6A8B6823430C6923434C692343D0
:100E80008C692343CC6923434C6A23438C6A2343F4
:100E90001A430260CB6843600B6883604B68C36091
:100EA00010BD704710B5601C84B20421084800F0E2
:100EB00057F9012807D107480088401C05490880D8
:100EC000002401F043F8042000F006F810BD0000F3
:100ED000000C0140900000200149086070470000AC
:100EE00014040140002123498279002A3AD00A469D
:100EF000126803689A430B461A600A1D1268036859
:100F00009A430B1D1A60027911440A6803681A4358
:100F10000A60184A0832126803689A43154B08336E
:100F20001A601A1D126803689A43124B0C331A6038
:100F30004279102A0ED11A1F126803681A430D4B0A
:100F400008331A601A1D126803681A43094B0C33E0
:100F50001A600DE00749427911440A6803681A4390
:100F60000A6005E0027911440A6803689A430A603E
:100F7000704700000004014030B500228B071C0FB1
:100F80000F2303FA04F20B4B8C1053F824309343D5
:100F9000084C8D1044F8253023468C1053F824302B
:100FA0008C07240F00FA04F42343024C8D1044F8FC
:100FB000253030BD080001402DE9F04102460025F2
:100FC0000026002000230024002791F803C00CF025
:100FD0000F0591F803C00CF0100CBCF1000F03D00A
:100FE00091F802C04CEA050591F800C0BCF1000F71
:100FF00031D0146800202BE04FF0010C0CFA00F304
:10100000B1F800C00CEA03069E4220D183004FF0E5
:101010000F0C0CFA03F7BC4305FA03FC4CEA04047A
:1010200091F803C0BCF1280F06D14FF0010C0CFA67
:1010300000FCC2F814C00AE091F803C0BCF1480FEC
:1010400005D14FF0010C0CFA00FCC2F810C0401C96
:101050000828D1D31460B1F800C0BCF1FF0F34DD13
:10106000546800202EE000F1080C4FF0010808FA47
:101070000CF3B1F800C00CEA03069E4221D18300B4
:101080004FF00F0C0CFA03F7BC4305FA03FC4CEAD3
:10109000040491F803C0BCF1280F05D100F1080C3D
:1010A00008FA0CF8C2F8148091F803C0BCF1480F9C
:1010B00007D100F1080C4FF0010808FA0CF8C2F84B
:1010C0001080401C0828CED35460BDE8F081000099
:1010D000F0B50A46002300240021002500F0004658
:1010E000B6F1004F02D11D4EF16901E01B4E71684F
:1010F000C0F3034583B200F44016B6F5401F08D193
:1011000021F07061154E766826F07066134F7E6090
:1011100012E000F48016B6F5801F06D1032606FA09
:1011200005F4A14341F0706106E0460D360103FA73
:1011300006F6B14341F0706122B1460D360103FA63
:1011400006F6314300F00046B6F1004F02D1034EDF
:10115000F16101E0014E7160F0BD0000000001404E
:101160000246002093680B400BB1012000E00020F4
:10117000704741617047016170470AB1016100E049
:101180004161704730B589B005460C4601210846DB
:1011900000F09EF90121092000F0BAF901211B4855
:1011A000FFF796FF4FF48060ADF8200018208DF80F
:1011B000230003208DF8220008A91548FFF7FCFE44
:1011C000ADF81850ADF814400020ADF81A00ADF895
:1011D000160005A94FF0804000F016FE6020ADF823
:1011E00004000120ADF806000220ADF80C0001A9B2
:1011F000400700F055FD0821C80600F0A1FD0121BF
:10120000880700F067FB09B030BD0000000318003C
:10121000000C014010B502F089FD01F0DDFE01F087
:1012200041FF02F0F7FFFFF7E1FA10BD00BF00BF7A
:1012300000240025002629E015484088012822D1F5
:1012400000240AE01248801D30F8140005441148BB
:1012500030F814000644601C84B20D480088A04297
:10126000F0DC0B480088B5FBF0F00B49C88008485B
:101270000088B5FBF0F008810020054908800120B6
:101280008880002048800A2004F0B0FAD4E70000EB
:101290002013002052140020180000201FB5142035
:1012A0000221CA01074BCDE90032CDE9021000232B
:1012B000054A06A1084804F07FFA074804F0E6FA58
:1012C0001FBD0000101600202D120008495F4D6F51
:1012D0006E69746F720000008015002010B5022145
:1012E0000348FFF73DFF08B1002010BD0120FCE7D7
:1012F000000C014000BFFEE77047000070B5002100
:1013000000230F22C47804B3154C246804F4E0646D
:10131000C4F5E064210AC1F10403CA40447804FA28
:1013200003F184781440214309010E4C0678A1553D
:10133000047804F01F050124AC4005786D11AD0060
:1013400005F1E025C5F8004109E0047804F01F0527
:101350000124AC40044D0678761145F8264070BD56
:101360000CED00E000E400E080E100E00249014310
:10137000024A1160704700000000FA050CED00E021
:1013800010B50024084B598818889A689047064879
:101390008188064800F035FD044844300488214621
:1013A00003A003F063FB10BDF4010020002C0140FA
:1013B00074696D315F62647472203D2025640A0A8D
:1013C0000000000010B5FFF7DBFF10BD10B50446AC
:1013D0000121044800F08AFA0121204600F07AFA3F
:1013E00010BD0000002C014010B50446002120462D
:1013F00000F07CFA0021204600F06CFA10BD0000DD
:1014000010B54FF4F870224948802248808801289E
:101410003DD10846007C012819D10846C07C00282F
:1014200032D10846C088498888420BDA18480088BB
:10143000401E17490880088804F0A8FD00201449C0
:10144000887421E0012012498874C8741CE0104897
:10145000007C022818D10E48007DA8B90C480089EC
:101460000B49498888420BDA09480088401E084920
:101470000880088804F08AFD00200549887403E08C
:10148000012003498874C87400200249888010BD77
:10149000180000202013002001460020034A506855
:1014A00020F44040084350607047000000100240A4
:1014B00029B1064A52690243044B5A6104E0034AC7
:1014C00052698243014B5A6170470000001002408C
:1014D00029B1064AD2690243044BDA6104E0034AA7
:1014E000D2698243014BDA6170470000001002406C
:1014F00029B1064A12690243044B1A6104E0034A07
:1015000012698243014B1A617047000000100240CB
:1015100029B1064A92690243044B9A6104E0034AE6
:1015200092698243014B9A617047000000100240AB
:1015300029B1064AD2680243044BDA6004E0034A48
:10154000D2688243014BDA6070470000001002400D
:1015500030B500210022002400232D4D6D6805F0D8
:101560000C0121B1042905D0082923D105E0294D1A
:10157000056022E0274D05601FE0254D6D6805F4EC
:101580007012234D6D6805F48034022505EB9242FC
:101590001CB9214D554305600BE01D4D6D6805F4E8
:1015A00000351DB11C4D5543056002E0194D5543F2
:1015B000056002E0174D056000BF00BF144D6D6867
:1015C00005F0F0010909154D6B5C0568DD404560CB
:1015D0000F4D6D6805F4E061090A104D6B5C4568BC
:1015E000DD4085600A4D6D6805F46051C90A0B4DF8
:1015F0006B5C4568DD40C560054D6D6805F4404194
:10160000890B074D6B5CC568B5FBF3F5056130BD13
:101610000010024000127A0000093D002E02002056
:101620003E020020704710B500F002F810BD000027
:101630000CB50020019000903348006840F48030E1
:101640003149086000BF3048006800F40030009065
:101650000198401C0190009818B90198B0F5A06F4E
:10166000F1D12948006800F4003010B10120009049
:1016700001E0002000900098012843D12348006831
:1016800040F01000214908600846006820F003007F
:1016900008600846006840F0020008601A48406888
:1016A000194948600846406848600846406840F468
:1016B000806048600846406820F47C104860084616
:1016C000406840F4E81048600846006840F08070C8
:1016D000086000BF0C48006800F000700028F9D0D6
:1016E0000948406820F00300074948600846406800
:1016F00040F00200486000BF0348406800F00C0062
:101700000828F9D10CBD0000001002400020024062
:1017100010B503F029F904F055F903F035F910BDBF
:1017200010B5002100200022214B5B6803F00C0162
:1017300021B1042906D0082928D107E01D4B1E4CF1
:10174000236027E01B4B1C4C236023E0184B5B6895
:1017500003F47010164B5B6803F48032022303EB32
:10176000904022B9154B4343134C23600DE0104BBE
:101770005B6803F4003323B1104B43430E4C2360EA
:1017800003E00C4B43430C4C236003E0094B0A4C31
:10179000236000BF00BF064B5B68C3F30313084C14
:1017A000E15C054B1B68CB40034C236010BD00007F
:1017B0000010024000127A000000002000093D00E5
:1017C0000400002010B51348006840F001001149E2
:1017D000086008464068104908400E4948600846BD
:1017E00000680E4908400B4908600846006820F46C
:1017F000802008600846406820F4FE0048604FF4EE
:101800001F008860FFF70FFF4FF000600449086079
:1018100010BD0000001002400000FFF8FFFFF6FEC0
:1018200008ED00E010B50121144800F063F920B381
:1018300004211348FFF794FC012805D111480088C2
:10184000401C1049088004E000F088FB00200D498E
:1018500008800C48008805280BDB0B48FFF7C4FD07
:1018600002F0D8FC00F07AFB002006490880074906
:1018700008800121014800F02AF810BD0004004052
:10188000000C01402C020020002C01405C000020D4
:1018900021B1028842F08002028004E002884FF603
:1018A0007F731A40028070470A884B881A438B88DE
:1018B0001A43CB881A430B891A434B891A438B89E5
:1018C0001A43A0F844207047CA4302827047CA43B3
:1018D0000282704721B1028842F00102028004E0D6
:1018E00002884FF6FE731A400280704731B1B0F89B
:1018F000442042F40042A0F8442005E0B0F844201F
:10190000C2F30E02A0F844207047000010B5044650
:101910006848844208D10121C014FFF709FE002164
:10192000E014FFF705FEC4E0B4F1804F08D10121B7
:101930000846FFF7DDFD00210120FFF7D9FDB8E0E3
:101940005D48844208D101210220FFF7D1FD00212A
:101950000220FFF7CDFDACE05848844208D10121B8
:101960000420FFF7C5FD00210420FFF7C1FDA0E022
:101970005348844208D101210820FFF7B9FD002116
:101980000820FFF7B5FD94E04E48844208D10121BC
:101990001020FFF7ADFD00211020FFF7A9FD88E022
:1019A0004948844208D101212020FFF7A1FD0021F0
:1019B0002020FFF79DFD7CE04448844208D10121AE
:1019C0004014FFF7B5FD00216014FFF7B1FD70E092
:1019D0003F48844209D10121C804FFF7A9FD002135
:1019E0004FF40020FFF7A4FD63E03A48844209D198
:1019F00001210805FFF79CFD00214FF48010FFF73F
:101A000097FD56E03448844209D101214805FFF78B
:101A10008FFD00214FF40010FFF78AFD49E02F48A9
:101A2000844208D101214020FFF762FD00214020BF
:101A3000FFF75EFD3DE02A48844208D10121802065
:101A4000FFF756FD00218020FFF752FD31E02548C9
:101A5000844208D101218015FFF74AFD0021A0151D
:101A6000FFF746FD25E02048844209D10121080402
:101A7000FFF75EFD00214FF48030FFF759FD18E0BD
:101A80001A48844209D101214804FFF751FD002181
:101A90004FF40030FFF74CFD0BE01548844208D1AD
:101AA00001218804FFF744FD00214FF48020FFF757
:101AB0003FFD10BD002C0140000400400008004024
:101AC000000C0040001000400014004000340140B1
:101AD000004C0140005001400054014000180040FB
:101AE000001C004000200040004001400044014034
:101AF0000048014030B50246002000230024158A2A
:101B000005EA0103958905EA010413B10CB101202E
:101B100000E0002030BD1AB183890B43838102E0CD
:101B200083898B438381704701894FF6F872114096
:101B30000181704770B5002400220023058C4FF608
:101B4000FE7635400584028C8388048B4FF68F75B2
:101B50002C40B51E2C400D882C43751E2A400D8943
:101B60002A434D882A43144DA8420BD0134DA84256
:101B700008D0134DA84205D0124DA84202D0124DF4
:101B8000A84213D14FF6F7752A404D892A434FF6E4
:101B9000FB752A408D882A434FF6FF652B404FF690
:101BA000FF552B408D892B43CD892B4383800483A4
:101BB000CD888586028470BD002C01400034014030
:101BC0000040014000440140004801400A46002115
:101BD000018B4FF6F77319401143018370470000E2
:101BE00070B5002400220023058C4FF6EF763540B7
:101BF0000584028C8388048B48F6FF752C404FF6D1
:101C0000FF452C400D884FF6FF7606EA05252C434C
:101C10004FF6DF752A400D8906EA05152A434D88DF
:101C200006EA05152A43154DA84202D0144DA842D4
:101C30001DD14FF67F752A404D894FF6FF7606EA93
:101C400005152A434FF6BF752A408D8806EA05150B
:101C50002A434FF6FF352B404FF2FF752B408D89FD
:101C600006EA85052B43CD8906EA85052B4383804B
:101C70000483CD880587028470BD0000002C0140DC
:101C8000003401400A460021018B4FF2FF731940D6
:101C90004FF6FF7303EA02231943018370470000E4
:101CA00070B5002400220023058C4FF6FF663540F6
:101CB0000584028C8388848B4FF68F752C404FF6F9
:101CC000FC752C400D882C434FF6FF552A400D899A
:101CD0004FF6FF7606EA05252A434D8806EA0525D4
:101CE0002A43154DA84202D0144DA8421DD14FF2EF
:101CF000FF752A404D894FF6FF7606EA05252A43EF
:101D00004FF6FF352A408D8806EA05252A434EF610
:101D1000FF752B404DF6FF752B408D8906EA0515A2
:101D20002B43CD8906EA05152B4383808483CD8818
:101D30008587028470BD0000002C01400034014002
:101D40000A460021818B4FF6F773194011438183B6
:101D50007047000070B5002200230024058C4EF669
:101D6000FF7635400584038C8488828B48F6FF75A6
:101D70002A404FF6FF452A400D884FF6FF7606EAC7
:101D800005252A434DF6FF752B400D8906EA0535DA
:101D90002B434D8806EA05352B430B4DA84202D054
:101DA0000A4DA84208D14BF6FF752C408D894FF69D
:101DB000FF7606EA85152C4384808283CD88A0F8BF
:101DC0004050038470BD0000002C014000340140ED
:101DD0000A460021818B4FF2FF7319404FF6FF73C3
:101DE00003EA022319438183704700210180418067
:101DF0008180C180018141818181C181704781855C
:101E00007047818670470000002202881D4B98426F
:101E10000ED01D4B98420BD0B0F1804F08D01B4B19
:101E2000984205D01A4B984202D01A4B984204D1DE
:101E30004FF68F731A404B881A43174B984207D0BE
:101E4000164B984204D04FF6FF431A40CB881A43F2
:101E500002808B8883850B8803850A4B98420BD0C0
:101E6000094B984208D00E4B984205D00D4B984232
:101E700002D00D4B984201D10B7A03860123838255
:101E800070470000002C0140003401400004004075
:101E900000080040000C004000100040001400400A
:101EA0000040014000440140004801404FF6FF71EE
:101EB000818000210180C180418001727047000053
:101EC0007FB504460D4601210220FFF701FB1A48A9
:101ED000FFF71CFD1848FFF727FEADF8045000205F
:101EE000ADF80A00ADF80600022C01DA012000E08E
:101EF000601E80B2ADF8080001A90F48FFF784FF0B
:101F000000210D48FFF7C4FC1D208DF800000020C3
:101F10008DF801008DF8020001208DF8030068465D
:101F2000FFF7ECF901210448FFF7CEFC012211462E
:101F30000148FFF7F0FD7FBD0004004010B52321EC
:101F40004FF47A70FFF7BCFF10BD000010B50121FF
:101F50000148FFF7BFFC10BD0004004010B5002190
:101F60000148FFF7B7FC10BD0004004010B540F277
:101F700025511D4800F060F810B31B4800F0F2F83E
:101F8000C4B21A48008800F40040C8B91748008855
:101F900000F4804060B10A2C03D00020134908806F
:101FA00020E01248008840F400401049088019E001
:101FB0000D2C06D10D48008840F480400B49088064
:101FC00010E00A480088C0F30D0009490C54074886
:101FD0000088401C0549088008460088C72801DDA4
:101FE0000020088010BD0000003801408C00002057
:101FF0000A1C002001F40072B2F5007F00D100BF7E
:10200000CA430280704721B1828942F40052828122
:1020100004E082894DF6FF731A40828170470246C0
:102020000020B1F5007F00D100BF13880B400BB139
:10203000012000E00020704770B502460024002314
:102040000025002040F66A16B14200D100BFC1F35E
:10205000421501F01F03012606FA03F3012D02D1F8
:102060009689334006E0022D02D1168A334001E002
:10207000968A33400C12012606FA04F4168834407E
:1020800013B10CB1012000E0002070BD2DE9F04734
:1020900086B005460E460024A24600BFA146002792
:1020A000B08900B100BF2F462C8A4CF6FF70044067
:1020B000F08804432C82AC894EF6F3100440B088BB
:1020C00031890843718908430443AC81AC8A4FF6D7
:1020D000FF400440B0890443AC8201A8FFF738FAFE
:1020E0001F48874202D1DDF810A001E0DDF80CA006
:1020F000A88900F4004040B10AEBCA0000EB0A10C6
:1021000031684900B0FBF1F807E00AEBCA0000EBC8
:102110000A1031688900B0FBF1F86420B8FBF0F0D8
:1021200004012009642101FB1089A88900F4004002
:1021300040B1322000EBC900B0FBF1F000F0070025
:10214000044308E0322000EB09106421B0FBF1F0F9
:1021500000F00F0004432C8106B0BDE8F0870000BA
:102160000038014001468888C0F308007047C1F379
:1021700008028280704700BFFEE7000030B589B0DA
:1021800005460C4601210846FFF7A2F90121092066
:10219000FFF7BEF901211B48FEF79AFF4FF40060DC
:1021A000ADF8200018208DF8230003208DF82200C0
:1021B00008A91548FEF700FFADF81850ADF8144017
:1021C0000020ADF81A00ADF8160005A94FF08040C8
:1021D000FFF71AFE7020ADF804000120ADF80600EC
:1021E0000220ADF80C0001A94007FFF7B3FD08215C
:1021F000C806FFF7EDFD01218807FFF76BFB09B06B
:1022000030BD000000031800000C014030B589B05B
:1022100005460C4605A8FFF749FE01A8FFF7E5FDB6
:102220000121C802FFF774F901210820FFF770F9B6
:10223000ADF81850ADF814400020ADF81A00ADF814
:1022400016008DF81C0005A91748FFF7DDFD4FF4B7
:102250008040ADF8200018208DF8230003208DF871
:10226000220008A91148FEF7A7FE01A8FFF7BDFD4F
:102270007020ADF804000420ADF808000820ADF887
:102280000E0001A90848FFF7ABFC08210648FFF73C
:10229000F9FC01210448FFF729FB01210248FFF75F
:1022A00019FB09B030BD0000002C0140000C0140BA
:1022B000DCE06F4800886F4948816D48008888815C
:1022C00008464089B0F59B7F08DC08468089B0F558
:1022D0009B7F03DC002008744874C4E06548408993
:1022E0006449898988425FDB022062490874084694
:1022F0008089B0F59B7F2CDC01200874084640895A
:1023000040F2C251884203DA01205A494874AAE0D7
:1023100058484089B0F5DD6F03DC04205549487406
:10232000A1E05448408940F68F11884203DA052025
:102330005049487497E04F48408940F6B2118842AE
:1023400003DA06204B4948748DE00220494948745D
:1023500089E04848808940F2C251884203DA01206E
:10236000444948747FE043488089B0F5DD6F03DC61
:1023700004204049487476E03E48808940F68F1139
:10238000884203DA05203B4948746CE0394880896B
:1023900040F6B211884203DA06203649487462E0FA
:1023A0000220344948745EE001203249087408462E
:1023B0004089B0F59B7F2CDC022008740846808998
:1023C00040F2C251884203DA01202A4948744AE0A7
:1023D00028488089B0F5DD6F03DC04202549487466
:1023E00041E02448808940F68F11884203DA0520B5
:1023F0002049487437E01F48808940F6B21188426E
:1024000003DA06201B4948742DE00220194948745C
:1024100029E01848408940F2C251884203DA01207D
:10242000144948741FE013484089B0F5DD6F03DCA0
:1024300004201049487416E00E48408940F68F1178
:10244000884203DA05200B4948740CE009484089AA
:1024500040F6B211884203DA06200649487402E0C9
:102460000220044948740A2003F0C0F921E7000063
:10247000301A0020180000201FB5142003214FF44B
:102480008072074BCDE90032CDE902100023054AE6
:1024900005A1084803F090F9064803F0F7F91FBDBD
:1024A000A0170020B1220008565F4D6F6E69746F4F
:1024B00072000000101700200146481EB0F1807F16
:1024C00001D301207047481E4FF0E0225061FF20E9
:1024D000044A107000204FF0E02290610720106144
:1024E0000020EFE723ED00E0014609B90020704726
:1024F000C8B220B1C8B20E4A105C401CF7E701F424
:102500007F4028B10A48C1F30722805C0930EEE71A
:1025100001F47F0028B10648C1F30742805C113006
:10252000E5E7034800EB116000781930DFE70000B1
:102530002062000802E008C8121F08C1002AFAD170
:1025400070477047002001E001C1121F002AFBD133
:102550007047000003490868884201D00120704795
:102560000020FCE7E40200202DE9F04389B0064694
:1025700088469146002400E0641C305D202804D089
:10258000305D092801D04445F6D324B94FF0FF301F
:1025900009B0BDE8F0832146304601F00FFD054645
:1025A00015B94FF0FF30F3E7202101A8FDF76FFECA
:1025B00001AA4146304601F06BFD074617B94FF0BE
:1025C000FF30E5E701A93846A847C9F80000002018
:1025D000DEE700002DE9FC5F04468B4615461E46EB
:1025E000DDE90C9ADDE90E7804F11C004060006022
:1025F00000BF24346560A660C4F80C90C4F810A035
:102600002321D4E9030202F051FCD4E9033C6344E2
:102610001A1F0F4BD4E9010102F080F92060A77660
:1026200067760020E061C4F82880C4F82C806061DF
:1026300020766066A066243C00902346054A214629
:10264000019004F1540003F03FFA0020BDE8FC9F24
:102650008D560008FD5800082DE9F04704460E4647
:1026600017469846DDF8209084F81190607C20F0A1
:10267000010060746662A76200202063C4F82C80A9
:10268000002506E004F11C0101EBC50002F00CFA84
:102690006D1C012DF6DBBDE8F08710B50246002069
:1026A00001460EE002F11C0303EBC100D0E9004338
:1026B0006360D0E9003423604060006000BF481CC4
:1026C00001460129EEDB10BD0246002000BF05E0F7
:1026D00031F8103022F81030431C98B20828F7DB8C
:1026E0007047000070B503460024142A01D9022067
:1026F00070BD501E264D2D88A8420CDD33F8110008
:10270000244D234E368825F8160021480088401CA9
:102710001F4D288039E033F811501D480088401CB7
:1027200080B21B4E30801B4E26F81050002409E06A
:10273000184830F81400184D2D682844164D2860AC
:10274000601C84B29442F3DB13480068B0FBF2F0E3
:10275000124D28800FE00F480D4D2D8830F8155090
:102760000B480088401E0B4E26F810500848008881
:10277000401E074D2880064800880128EBDC501ECB
:10278000034D28800020044D286004480088AFE7EE
:102790006C000020F01A0020680000206E0000206D
:1027A00010B520A002F062F92148017821A002F0C2
:1027B0005DF91F48007800F0010010B123A002F07D
:1027C00055F91B48007800F0020010B122A002F079
:1027D0004DF91748007800F0040010B121A002F074
:1027E00045F91348007800F0080010B121A002F06C
:1027F0003DF90F48007800F0100010B120A002F061
:1028000035F90B48007800F0800030B108480F30EF
:1028100001681DA002F02AF902E01FA002F026F9CB
:1028200010BD0000627573206661756C743A0A0011
:1028300029ED00E05343425F434653525F42465303
:10284000523A307825303258200000004942555322
:102850004552522000000000505245434953455212
:1028600052200000494D5052454349534552522091
:1028700000000000554E53544B45525220000000BA
:1028800053544B45525220005343422D3E42464141
:10289000523A253038580A000A0000001CB50A20B8
:1028A00005214FF480730022CDE90010054906A0F0
:1028B00002F0C3FE044614B1204602F0E7FF0020F8
:1028C0001CBD0000D9280008627574746F6E5F70BB
:1028D000726F63657373000008B5002400234FF422
:1028E000807201211AA002F005FB1C49086008460D
:1028F000006810B11AA002F0B9F828E04FF0FF33D9
:10290000012269461548006802F042FB0446002C8B
:1029100019D19DF80000012804D0022806D0032810
:102920000CD107E015A002F0A1F80BE01CA002F00A
:102930009DF807E022A002F099F803E02CA002F035
:1029400095F800BF03E021462FA002F08FF8D5E7ED
:10295000627574746F6E5F6D7100000094000020EA
:10296000627574746F6E5F6D7120637265617465FA
:1029700020737563636573730A0A000052656365AB
:10298000697665206D6573736167653A4B455931AA
:102990002850422E332920446F776E0A0A00000027
:1029A00052656365697665206D6573736167653A25
:1029B0004B4559312850422E33292055700A0A00C0
:1029C00052656365697665206D6573736167653A05
:1029D0004B4559312850422E3329204C6F6E675099
:1029E00072657373656420446F776E0A0A00000095
:1029F0004E6F20627574746F6E204D6573736167DE
:102A000065210A0A00000000E695B0E68DAEE68E6C
:102A1000A5E694B6E99499E8AFAFEFBC8CE9949938
:102A2000E8AFAFE4BBA3E7A081EFBC9A3078256C98
:102A3000780A0A0010B509480088B0F5167F08DA50
:102A400006480088401C05490880088803F09EFA63
:102A500002E001200249087010BD000018000020AB
:102A60001400002070B504460D4600F0B1FD0020B2
:102A700070BD70B504460D4600F0ACFF002070BD7F
:102A800070B50446002500260A2094FBF0F085B2BC
:102A90000748007850B106480078012805D105485C
:102AA000018805A001F0E2FF00E000BF70BD00005A
:102AB000360000207C000020646174615F6E756DDB
:102AC000203D2025640A0A0010B51448006890F8DB
:102AD0002900C0F3400020B90020114908700846C1
:102AE00010BD1048006838B180220E4801680C48BB
:102AF000FDF7E4FB0A48F3E701F0C8FA20B10AA1A8
:102B00000748FDF7EEFB03E009A10548FDF7E9FBE7
:102B100009A10348FDF7C6FB0148E1E718030020BF
:102B20005C2600201C0300206D736820000000005C
:102B300066696E73682000003E00000010B501F069
:102B40009FFD10BD0549096891F8291060F3410106
:102B5000024A126882F8291070470000180300200A
:102B6000024A1060024A116070470000080300200A
:102B70000C0300207CB5002517491848FFF7F0FF2B
:102B80008021012001F082FC154908600846006898
:102B900020B914A001F06AFF681E7CBD0A2015212F
:102BA0004FF400730022CDE90010144914A002F084
:102BB00044FD044600231A4613A10948006802F0A8
:102BC0008DFB0120FFF7BEFF1CB115B9204602F0B6
:102BD0005DFE0020E1E7000088650008D864000879
:102BE000180300206E6F206D656D6F727920666F1F
:102BF00072207368656C6C0A00000000112C0008DC
:102C0000747368656C6C0000736872780000000073
:102C1000E948006890F8290020F00100401CE649CE
:102C2000096881F82900FFF74FFF054601F01EFFF4
:102C3000C1E1FFF783FF0446002C00DABBE11B2C47
:102C400005D10120DC49096881F82800B3E1DA48A0
:102C5000006890F8280001280DD15B2C05D10220D6
:102C6000D549096881F82800A5E10020D249096802
:102C700081F8280045E0D048006890F82800022834
:102C80003FD10020CC49096881F82800412C00D1AF
:102C900091E1422C00D18EE1442C11D1C64800684C
:102CA000B0F87C0058B1C5A001F0E0FEC248006851
:102CB000B0F87C00401EC0490968A1F87C007AE1A8
:102CC000432C1ED1BC480068B0F87C00BA490968A2
:102CD000B1F87A10884213DAB7480068B0F87C205F
:102CE000B54800682A30815CB5A001F0BFFEB2484B
:102CF0000068B0F87C00401CAF490968A1F87C006E
:102D000059E10CB1FF2C00D155E1092C1FD1002550
:102D100003E0AAA001F0AAFE6D1CA7480068B0F865
:102D20007C00A842F5DCA44800682A3003F046F98C
:102D3000A14800682A30FDF7CDFA80B29E490968A3
:102D4000A1F87A009C490968A1F87C0033E17F2C46
:102D500001D0082C6ED198480068B0F87C0000B90A
:102D600029E195480068B0F87A00401E9249096848
:102D7000A1F87A0090480068B0F87C00401E8E49A7
:102D80000968A1F87C008C480068B0F87A008A498C
:102D90000968B1F87C1088423FDD874B1B68B3F8A7
:102DA0007A30854E3668B6F87C609A1B824B1B6879
:102DB000B3F87C305B1C804E36682A3699197E4BFE
:102DC0001B68B3F87C607C4B1B682A33F01802F058
:102DD0004CF8002278480068B0F87A10764800680D
:102DE0002A30425474480068B0F87C207248006869
:102DF0002A30111873A001F039FE6F480068B0F84E
:102E00007C5003E06DA001F031FE6D1C6A48006843
:102E1000B0F87A00A842F5DA0BE06CA001F026FECB
:102E2000002165480068B0F87A20634800682A30BD
:102E30008154C0E00D2C01D00A2C2BD101F026F9D1
:102E4000012812D15C48006890F8290000F00100C8
:102E500010B15FA001F00AFE57480068B0F87A1080
:102E6000554800682A3001F073F8FFF72DFE05463B
:102E700001F0FCFD5021504800682A30FDF707FAA8
:102E800000204D490968A1F87A004B490968A1F86A
:102E90007C0090E048480068B0F87A00502804DBD5
:102EA000002045490968A1F87A0043480068B0F855
:102EB0007C0041490968B1F87A10884245DA3E4BF6
:102EC0001B68B3F87A303C4E3668B6F87C609A1BC3
:102ED000394B1B68B3F87C60374B1B682A33F118F9
:102EE000354B1B68B3F87C305B1C334E36682A3692
:102EF000981901F0BAFF30480068B0F87C202E48DD
:102F000000682A3084542C48006890F8290000F0AA
:102F1000010050B128480068B0F87C2026480068BD
:102F20002A3011182BA001F0A1FD23480068B0F849
:102F30007C5003E021A001F099FD6D1C1E48006843
:102F4000B0F87A00A842F5DC12E01B480068B0F83F
:102F50007A20194800682A3084541748006890F88D
:102F6000290000F0010018B1214615A001F07EFDF6
:102F7000002411480068B0F87A00401C0E49096826
:102F8000A1F87A000C480068B0F87C00401C0A499F
:102F90000968A1F87C0008480068B0F87A00502859
:102FA00008DB002004490968A1F87A000249096891
:102FB000A1F87C0000BF3CE61803002008000000D8
:102FC0002563000008257320200800000820080061
:102FD0000A0000002573000008B501210820FEF753
:102FE00097FA10208DF803000002ADF800000320CE
:102FF0008DF8020069460248FDF7DEFF08BD0000BB
:10300000000C014010B51448006800F0020010B137
:1030100012A001F02BFD1048006800F0804088B13C
:103020000D48C01E007808B1FFF7BAFB0A48001F20
:10303000007808B100F0C8FE0748801E008808B17B
:1030400003F050F80448006800F0004010B109A0F7
:1030500001F00CFD10BD00002CED00E06661696C14
:10306000656420766563746F722066657463680AB0
:10307000000000006465627567206576656E740AFD
:103080000000000010B502A001F0F0FC002010BD0F
:1030900048656C6C6F2052542D54687265616421D0
:1030A0000A00000008B501210820FEF731FA0121CD
:1030B0000846FEF72DFA01210848FEF709F84820D6
:1030C0008DF803000220ADF8000003208DF8020007
:1030D00069460348FDF770FF08BD0000000230009C
:1030E000000C014013B59DF80000012827D19DF880
:1030F000010020B920213848FEF73BF86AE09DF82E
:103100000100012866D1BDF802004FF6FF71884228
:1031100004DB20213048FEF72EF85BE020212E480A
:10312000FEF729F8BDF8020002F060FB20212A48D2
:10313000FEF71FF8BDF8020002F058FB4AE09DF8C8
:103140000000022846D19DF8010020B91021224834
:10315000FEF70FF83EE09DF8010001281BD1BDF8F5
:1031600002004FF6FF71884204DB10211A48FEF777
:1031700002F82FE010211848FDF7FDFFBDF802000E
:1031800002F034FB10211448FDF7F3FFBDF80200F4
:1031900002F02CFB1EE09DF8000003281AD1BDF8B8
:1031A00002004FF6FF71884204DB08210A48FDF750
:1031B000E2FF0FE008210848FDF7DDFFBDF802003F
:1031C00002F014FB08210448FDF7D3FFBDF802000C
:1031D00002F00CFB1CBD0000000C014003E00248A3
:1031E000426803C89047FAE7980000201FB51420F2
:1031F00005214FF48072074BCDE90032CDE9021072
:103200000023054A05A1064802F0D6FA044802F058
:103210003DFB1FBD741D0020DD3100086C6564009E
:10322000E41C002010B50CA001F020FC0F4804683D
:103230000CE002220EA12068FDF75CF800B904E062
:103240000CA0216801F012FC00BF08340A48006895
:103250008442EED3002010BD2D2D46756E63746937
:103260006F6E204C6973743A0A0000000803002056
:103270005F5F000025730A000C0300202DE9F04F6A
:103280008FB000270FF2C009082302AA04210AA860
:1032900000F096F84FF010084A4641462CA001F085
:1032A000E5FB404600F06CFF32A001F0DFFB00BF01
:1032B0000AA9384600F099F8074600253BE002A825
:1032C00050F82500A0F11406FCF74EFF8346307C31
:1032D00020F080009DF83010884203D05846FCF75B
:1032E00047FF27E05846FCF743FF344604F11C0033
:1032F00001F009FCA8B904F11C0001F00CFC8246A5
:10330000606A234610224146CDE9000A21A001F05F
:10331000ADFB04F11C0002F06DFE15A001F0A6FB50
:1033200007E0606A23461022414600901FA001F08A
:103330009DFB00BF6D1C0E98A842C0DC002FB7D1CA
:1033400000200FB0BDE8F08F6576656E7400000058
:10335000252D2A2E73202020202020736574202004
:10336000202073757370656E642074687265616483
:103370000A00000020202D2D2D2D2D2D2D2D2D2D41
:10338000202D2D2D2D2D2D2D2D2D2D2D2D2D2D0A9D
:1033900000000000252D2A2E2A73202030782530A9
:1033A000387820253033643A00000000252D2A2E7D
:1033B0002A73202030782530387820300A00000029
:1033C0002DE9F04704460D4616461F46284601F0F3
:1033D000A9FE814609F10408C4F8008025726660E0
:1033E000E76000202061BDE8F0872DE9F84F07462F
:1033F0000C464FF0000A00202061E06808B1207AF6
:1034000010B90020BDE8F88FD4F800801FB94546F8
:103410004FF0010A00E03D46FCF7A6FE0090BAF12D
:10342000000F0ED1A5F1140B9BF8100020F08000C6
:10343000217A884204D00098FCF79AFE0020E1E748
:1034400000BF0026D4F804900BE02D68454501D15B
:10345000002507E0761C49F8045BE068B04200D123
:1034600000E0F2E700BF0098FCF782FE26612846E4
:10347000C8E700002DE9F04F91B000270FF2D40902
:10348000082304AA05210CA8FFF79AFF4FF01008A3
:103490004A46414631A001F0E9FA404600F070FE8C
:1034A00037A001F0E3FA00BF0CA93846FFF79DFFF3
:1034B0000746002545E004A850F82500A0F11406B1
:1034C000FCF752FE8346307C20F080009DF83810D7
:1034D000884203D05846FCF74BFE31E05846FCF7D3
:1034E00047FE344604F11C0001F00DFBB8B904F1AD
:1034F0001C0001F010FB8246208D618D23461022B6
:10350000CDE9010A0091414624A001F0AFFA04F18F
:103510001C0002F06FFD27A001F0A8FA0FE004F1F3
:103520001C0001F0F8FA8246208D618D234610229E
:10353000CDE9010A009141461FA001F097FA00BFB2
:103540006D1C1098A842B6DC002FADD1002011B040
:10355000BDE8F08F6D61696C626F7800252D2A2EB1
:103560007320656E7472792073697A652073757340
:1035700070656E64207468726561640A0000000002
:10358000202D2D2D2D20202D2D2D2D202D2D2D2D9F
:103590002D2D2D2D2D2D2D2D2D2D0A00252D2A2EB5
:1035A0002A7320253034642020253034642025649B
:1035B0003A0000000A000000252D2A2E2A7320253B
:1035C0003034642020253034642025640A00000053
:1035D00010B50848016808A001F048FA0B480168D6
:1035E0000BA001F043FA0F4801680FA001F03EFA6A
:1035F00010BD000058020020746F74616C206D656E
:103600006D6F72793A2025640A0000005C02002088
:1036100075736564206D656D6F7279203A2025643D
:103620000A000000600200206D6178696D756D20F0
:10363000616C6C6F6361746564206D656D6F727928
:103640003A2025640A0000002DE9F04F8FB00027D2
:103650000FF2CC09082302AA06210AA8FFF7B0FE40
:103660004FF010084A46414630A001F0FFF94046AD
:1036700000F086FD34A001F0F9F900BF0AA9384630
:10368000FFF7B3FE0746002541E002A850F82500E9
:10369000A0F11406FCF768FD8346307C20F0800022
:1036A0009DF83010884203D05846FCF761FD2DE0AC
:1036B0005846FCF75DFD344604F11C0001F023FA86
:1036C000A8B904F11C0001F026FA8246A08D234619
:1036D00010224146CDE9000A21A001F0C7F904F10A
:1036E0001C0002F087FC23A001F0C0F90DE004F1FA
:1036F0001C0001F010FA8246A08D2346102241469C
:10370000CDE9000A1CA001F0B1F900BF6D1C0E98B4
:10371000A842BADC002FB1D100200FB0BDE8F08F75
:103720006D7367717565756500000000252D2A2E83
:103730007320656E7472792073757370656E642082
:103740007468726561640A00202D2D2D2D20202DB6
:103750002D2D2D2D2D2D2D2D2D2D2D2D2D0A000016
:10376000252D2A2E2A732025303464202025643A02
:10377000000000000A000000252D2A2E2A732025B3
:10378000303464202025640A000000002DE9F04F49
:1037900091B000270FF2A009082304AA03210CA866
:1037A000FFF70EFE4FF010084A46414624A001F0F4
:1037B0005DF9404600F0E4FC2AA001F057F900BF93
:1037C0000CA93846FFF711FE074600262AE004A898
:1037D00050F82600A0F11404FCF7C6FC8346207CB8
:1037E00020F080009DF83810884203D05846FCF73E
:1037F000BFFC16E05846FCF7BBFC254605F11C0053
:1038000001F089F9824695F827001022A96A2B4613
:10381000CDE9020ACDE9002141461AA001F026F9BE
:1038200000BF761C1098B042D1DC002FC8D1002018
:1038300011B0BDE8F08F00006D7574657800000070
:10384000252D2A2E732020206F776E657220206828
:103850006F6C642073757370656E64207468726534
:1038600061640A00202D2D2D2D2D2D2D2D202D2D87
:103870002D2D202D2D2D2D2D2D2D2D2D2D2D2D2D85
:103880002D0A0000252D2A2E2A7320252D382E2AB8
:103890007320253034642025640A00002DE9F04FA0
:1038A0008FB000270FF2CC09082302AA02210AA830
:1038B000FFF786FD4FF010084A46414630A001F060
:1038C000D5F8404600F05CFC34A001F0CFF800BF12
:1038D0000AA93846FFF789FD0746002541E002A8FE
:1038E00050F82500A0F11406FCF73EFC8346307C1E
:1038F00020F080009DF83010884203D05846FCF735
:1039000037FC2DE05846FCF733FC344604F11C002C
:1039100001F0F9F8A8B904F11C0001F0FCF88246A6
:10392000A08C234610224146CDE9000A21A001F0D7
:103930009DF804F11C0002F05DFB17A001F096F861
:103940000DE004F11C0001F0E6F88246A08C23464D
:1039500010224146CDE9000A1AA001F087F800BF05
:103960006D1C0E98A842BADC002FB1D100200FB018
:10397000BDE8F08F73656D6170686F72650000005F
:10398000252D2A2E73207620202073757370656E86
:1039900064207468726561640A000000202D2D2D7A
:1039A000202D2D2D2D2D2D2D2D2D2D2D2D2D2D0A77
:1039B00000000000252D2A2E2A7320253033642094
:1039C00025643A00252D2A2E2A73202530336420C1
:1039D00025640A002DE9F04FB5B04FF000090FF251
:1039E0001C1B082327AA01212FA8FFF7E9FC4FF091
:1039F000100A5A465146434801F038F8504600F044
:103A0000BFFB41A001F032F800BF2FA94846FFF7E5
:103A1000ECFC81464FF0000865E027A850F828002C
:103A2000A0F11405FCF7A0FB3490287C20F0800066
:103A30009DF8C410884203D03498FCF799FB50E0FD
:103A40009022294603A8FCF709FC3498FCF790FB68
:103A50002C4694F83D0023461022514600903AA08F
:103A600001F004F894F83C0000F00F06012E03D199
:103A700038A000F0FBFF15E0022E03D138A000F0C3
:103A8000F5FF0FE01EB939A000F0F0FF0AE0042EA8
:103A900003D139A000F0EAFF04E0032E02D139A0DF
:103AA00000F0E4FF276B00E07F1C38782328FBD070
:103AB000D4E90C10791A401A64214843616BB0FBB9
:103AC000F1F00290A16B206DCDE90001636A206BDB
:103AD000C01A636BC1181A462DA0029B00F0C6FFE6
:103AE00000BF08F101083398404596DCB9F1000F9A
:103AF0008BD1002035B0BDE8F08F0000746872658E
:103B00006164000058640008202D2D2D20202D2DEB
:103B10002D2D2D2D2D202D2D2D2D2D2D2D2D2D2DE2
:103B2000202D2D2D2D2D2D2D2D2D2D20202D2D2DEC
:103B30002D2D2D20202D2D2D2D2D2D2D2D2D2D20DC
:103B40002D2D2D0A00000000252D2A2E2A73202558
:103B50003364200020726561647920200000000039
:103B60002073757370656E640000000020696E69D3
:103B7000742020200000000020636C6F73652020FB
:103B8000000000002072756E6E696E670000000014
:103B9000203078253038782030782530387820204B
:103BA000202025303264252520202030782530380B
:103BB0007820253033640A002DE9F04790B00027C3
:103BC0000FF2B409082303AA0A210BA8FFF7F8FB98
:103BD0004FF010084A46414629A000F047FF4046F2
:103BE00000F0CEFA30A000F041FF00BF0BA938462C
:103BF000FFF7FBFB074600262DE003A850F8260040
:103C0000A0F11404FCF7B0FA8246207C20F080007A
:103C10009DF83410884203D05046FCF7A9FA19E009
:103C20005046FCF7A5FA2546D5E90B012B46102294
:103C3000CDE90001414625A000F018FF687C00F0A6
:103C4000010018B127A000F011FF02E028A000F049
:103C50000DFF00BF761C0F98B042CEDC002FC5D1FF
:103C600001F0AAFE0446214625A000F0FFFE002038
:103C700010B0BDE8F087000074696D657200000047
:103C8000252D2A2E732020706572696F6469632068
:103C9000202074696D656F757420202020202020FD
:103CA000666C61670A000000202D2D2D2D2D2D2D15
:103CB0002D2D2D202D2D2D2D2D2D2D2D2D2D202D4E
:103CC0002D2D2D2D2D2D2D2D2D2D0A00252D2A2E7E
:103CD0002A732030782530387820307825303878AD
:103CE000200000006163746976617465640A0000F5
:103CF00064656163746976617465640A000000003C
:103D000063757272656E74207469636B3A307825DE
:103D10003038780A0000000000BFFEE710B5044606
:103D200000F0D4FBFFF7F8FF10BD000000B587B02E
:103D300022480068069001210820FDF7E9FB06A94A
:103D40001F48FDF739F920211D48FDF714FA4FF4FB
:103D500080511B48FDF70FFA1848001D00680590B8
:103D600001210420FDF7D4FB05A91648FDF724F92D
:103D700001210820FDF7CCFB01210846FDF7C8FB17
:103D800002210120FDF7F8F80C4808300068049083
:103D900004A90B48FDF710F908490C3103C9CDE916
:103DA000020102A8FDF79EF8044814300068019053
:103DB00001A8FDF7A3FA07B000BD000008620008E3
:103DC000000C01400008014010B51CA000F04EFEA0
:103DD0001F4801781FA000F049FE1D48007800F040
:103DE000010010B121A000F041FE1948007800F058
:103DF000020010B120A000F039FE1548007800F054
:103E0000080010B11FA000F031FE1148007800F04A
:103E1000100010B11EA000F029FE0D48007800F03F
:103E2000800030B10A480C3001681CA000F01EFE72
:103E300002E01EA000F01AFE10BD00006D656D20AE
:103E40006D616E616765206661756C743A0A000089
:103E500028ED00E05343425F434653525F4D4653C3
:103E6000523A30782530325820000000494143430F
:103E700056494F4C200000004441434356494F4CA3
:103E8000200000004D554E53544B45525220000027
:103E90004D53544B45525220000000005343422DD5
:103EA0003E4D4D41523A253038580A000A00000074
:103EB0002DE9F04781460026002799F8000028B92F
:103EC0000021084600F0A8F8BDE8F0871B48046808
:103ED00027E006221AA12068FCF70CFA00B11FE0C7
:103EE000206800F106084846FCF7F4F9824652467D
:103EF00041464846FCF7FEF988B926B94746384698
:103F0000FCF7E8F906464146384602F09EF80546B9
:103F1000B54200DA2E4641460BA000F0A7FD00BFD7
:103F200008340A4800688442D3D327B13246394660
:103F3000484601F09EFA00BFC6E7000008030020D3
:103F40005F5F636D645F000025730A000C0300204F
:103F500038B504460D4601E0641C6D1E207820280B
:103F6000FAD020780928F7D00DB9002038BD6A466C
:103F700029462046FEF7F8FA08B90098F6E72046E9
:103F800000E0401C0178202902D001780029F8D1F6
:103F900000210170214603A000F068FD4FF0FF30C2
:103FA000E4E7000025733A20636F6D6D616E642055
:103FB0006E6F7420666F756E642E0A002DE9F041F5
:103FC00006460D4600271048046815E006220FA19A
:103FD0002068FCF78FF900B10DE02168881D2A46A2
:103FE0003146FCF787F928B9A81D2168085C08B993
:103FF000676805E000BF0834064800688442E5D3DE
:1040000000BF3846BDE8F081080300205F5F636DA4
:10401000645F00000C03002070B505460E460EA03C
:1040200000F024FD134804680DE0062212A1206868
:10403000FCF760F900B105E02068811D10A000F0D8
:1040400015FD00BF08340F4800688442EDD30EA070
:1040500000F00CFD002070BD52542D546872656153
:1040600064207368656C6C20636F6D6D616E647342
:104070003A0A0000080300205F5F636D645F000080
:10408000257320000C0300200A0000000120704767
:104090002DE9F04782460E469046544600250027FB
:1040A00055E003E000202070641C6D1C207820285F
:1040B00002D02078092801D1B542F3D3082F12D3BA
:1040C00026A000F0D3FC4FF0000906E058F82910B4
:1040D0002AA000F0CBFC09F10109B945F6D326A0CE
:1040E00000F0C4FC35E0B54200D332E0207822284D
:1040F0001CD1641C6D1C48F827407F1C09E0207807
:104100005C2804D16078222801D1641C6D1C641CD9
:104110006D1C2078222801D0B542F0D3B54200D3DF
:1041200017E000202070641C6D1C10E048F8274048
:104130007F1C01E0641C6D1C2078202804D02078AE
:10414000092801D0B542F5D3B54200D301E0B5420C
:10415000A7D300BF3846BDE8F0870000546F6F203A
:104160006D616E7920617267732021205765206F21
:104170006E6C79205573653A0A00000025732000A3
:1041800010B5044602E004A000F070FC201EA4F16B
:104190000104F8D110BD00002D00000030B51A4C0C
:1041A000436824681919884215D04B889BB9174B6E
:1041B0001B6899420FD0164B1B688B4201D1144BE0
:1041C00018604B684360104B1B68C31A0E4D4C6857
:1041D0002D682C44A3600C4C836824681A19824211
:1041E00011D053887BB90A4B1B68834201D1084B1D
:1041F0001A6043685360044B1B68D31A024D44682D
:104200002D682C44A36030BD4C02002050020020D9
:104210005402002010B540210448FCF7AAFF0122F7
:1042200011030248FCF7A9FF10BD0000000C01407B
:1042300010B540210448FCF79EFF00224FF4805146
:104240000148FCF79AFF10BD000C01402DE9F04F2A
:1042500086B00D469C46DDE9106401960F9B04F084
:104260004008B8F1000F02D0DFF8708101E0DFF8FC
:104270007081CDF8008004F01008B8F1000F01D073
:1042800024F0010404F00108B8F1000F02D04FF04F
:10429000300801E04FF02008C246002704F0020871
:1042A000B8F1000F11D0002A02DA2D2752420CE09B
:1042B00004F00408B8F1000F01D02B2705E004F04A
:1042C0000808B8F1000F00D02027002142B94FF0B4
:1042D000300B8846491C0DF1080909F808B01DE0AB
:1042E0001AE0E146B9F10A0F08D14FF00A0BB2FB10
:1042F000FBFE0BFB1E28B2FBFBF202E002F00F08F4
:10430000120900BFDDF8009019F808B08846491C72
:104310000DF1080909F808B0002AE2D1B14200DD28
:104320000E469B1B04F01108B8F1000F10D117B115
:10433000002B00DD5B1E06E0A84203D24FF02008F0
:1043400080F80080401CB3F10008A3F10103F3DC06
:1043500027B1A84200D207705B1E401C04F0100871
:10436000B8F1000F0AD104E0A84201D280F800A001
:10437000401CB3F10008A3F10103F5DC06E0A842FC
:1043800003D24FF0300880F80080401CB046761E03
:104390008845F4DC08E0A84205D20DF1080818F8B9
:1043A000018080F80080401CB1F10008A1F10101FA
:1043B00004DDDDF80480B8F1000FECD106E0A8427E
:1043C00003D24FF0200880F80080401CB3F10008B1
:1043D000A3F10103F3DC06B0BDE8F08F3163000800
:1043E0002063000808B50CE04FF0FF32694605482D
:1043F00000F083FC10B904A000F038FB012001F0AC
:10440000F5F9F1E7141B0020656E746572205057B2
:104410004D20636F6E74726F6C0A0A001FB50A201C
:104420000821CA01074BCDE90032CDE90210002373
:10443000054A06A1084801F0BFF9074801F026FA2D
:104440001FBD0000941E0020E543000870776D5FDB
:104450007468726564000000942200201CB514206A
:104460000A214FF400730022CDE90010044905A091
:1044700001F0E3F80446204601F008FA1CBD0000F4
:104480001D3D00086D61696E0000000070B50446B6
:104490000D4604FB05F000F05BFB06462EB104FB65
:1044A00005F20021304600F001FD304670BD0000ED
:1044B00010B5044C02E020688047241D0248844265
:1044C000F9D310BDA0640008A464000810B5044C22
:1044D00002E020688047241D02488442F9D310BDC1
:1044E000A4640008D464000810B5FBF73DFE044640
:1044F00004480088401C00B2024908802046FBF7AF
:1045000037FE10BDD402002010B5FBF72DFE044687
:104510000C480088401E00B20A4908800846B0F9DD
:10452000000000280ADC002008802046FBF720FE5F
:104530000548006828B100F03DFE02E02046FBF788
:1045400017FE10BDD4020020D802002070B5054629
:1045500005B970BD1D480068854203D31C4800683A
:10456000854200D3F5E7A5F10C044FF0FF3119485F
:1045700000F0E4FE608818B12088B0F5F55F08D03F
:1045800015A000F073FA23886288214619A000F074
:104590006DFA002060804FF4F550208021480068BB
:1045A000844201D21F480460084960680968611AA2
:1045B000401A1D490968081A1B4908602046FFF780
:1045C000EDFD044800F09DFE00BFC2E74C02002054
:1045D0005002002034250020746F2066726565202B
:1045E0006120626164206461746120626C6F636B3E
:1045F0003A0A00006D656D3A203078253038782C05
:10460000207573656420666C61673A2025642C20F0
:104610006D6167696320636F64653A203078253087
:1046200034780A00540200205C02002000487047E1
:1046300020030020004870472013002070B5FDF7CC
:104640006FF84FF4A060FCF791FE0C4800684FF43F
:104650007A71B0FBF1F42046FDF72EFF4FF4E13004
:1046600001F004FDFFF724FFFFF7E4FF0446FFF726
:10467000DDFF0546214600F017FF70BD0000002059
:1046800010B54FF0FF3420210D48FDF7C8FC40B1B4
:104690000B48FDF767FD044620210948FDF7AAFCF9
:1046A0000BE008210648FDF7BAFC18B108210448C0
:1046B000FDF7A0FC0A2001F099F8E0B210BD00005F
:1046C0000038014010B50446FFF70EFF19E02078CE
:1046D0000A280AD10D210E48FDF749FD00BF4021EF
:1046E0000B48FDF79CFC0028F9D014F8011B084882
:1046F000FDF73DFD00BF40210548FDF790FC002877
:10470000F9D020780028E2D1FFF7FEFE10BD0000AE
:104710000038014070B505462C1D3048006838B19E
:1047200028462E4909688847064606B970BD00BF6D
:104730002BA0E16B00F09AF92DA0216A00F096F908
:104740002FA0616A00F092F931A0A16A00F08EF901
:1047500033A0E16A00F08AF935A0216800F086F9FB
:1047600037A0616800F082F939A0A16800F07EF9F5
:104770003BA0E16800F07AF93DA0216900F076F9EC
:104780003FA0616900F072F941A0A16900F06EF9E3
:1047900043A0E16900F06AF945A0216B00F066F9D9
:1047A00047A0616B00F062F949A0A16B00F05EF9CF
:1047B000287800F0040048B101F040F80646314680
:1047C00047A000F053F9FFF705F902E04CA000F014
:1047D0004DF9FEF717FC00BFFEE7000004030020C0
:1047E0007073723A203078253038780A0000000063
:1047F0007230303A203078253038780A00000000D6
:104800007230313A203078253038780A00000000C4
:104810007230323A203078253038780A00000000B3
:104820007230333A203078253038780A00000000A2
:104830007230343A203078253038780A0000000091
:104840007230353A203078253038780A0000000080
:104850007230363A203078253038780A000000006F
:104860007230373A203078253038780A000000005E
:104870007230383A203078253038780A000000004D
:104880007230393A203078253038780A000000003C
:104890007231303A203078253038780A0000000034
:1048A0007231313A203078253038780A0000000023
:1048B0007231323A203078253038780A0000000012
:1048C000206C723A203078253038780A00000000D9
:1048D0002070633A203078253038780A00000000D4
:1048E00068617264206661756C74206F6E207468F4
:1048F000726561643A2025730D0A0D0A00000000FC
:1049000068617264206661756C74206F6E206861E6
:104910006E646C65720D0A0D0A000000F0B5044665
:104920000D461646301D20F0070040380146002293
:1049300003E00C4F41F82270521C102AF9D30D628B
:104940004FF0000CC1F824C0C1F828C0C1F82CC039
:10495000C1F830C04B638C634FF0807CC1F83CC021
:10496000F0BD0000EFBEADDE10B5FBF7FDFB044669
:1049700004480078401C034908702046FBF7F8FB08
:1049800010BD00004802002010B5FBF7EDFB044607
:1049900004480078401E034908702046FBF7E8FBF6
:1049A00010BD00004802002070B504462068A0F148
:1049B0001C05284600F024FF002070BD70B5054698
:1049C0000EE0FBF7D1FB06462868A0F11C044FF06F
:1049D000FF30A063204600F013FF3046FBF7C8FB12
:1049E000284600F080F80028EBD0002070BD2DE9AB
:1049F000F04105460C469046204600F05DFFB8F1B8
:104A0000000F03D0B8F1010F23D105E004F11C0120
:104A1000284600F061F81CE02E680FE0A6F11C07A4
:104A200094F83D0097F83D10884206DA04F11C0125
:104A300007F11C0000F050F802E03668AE42EDD1FC
:104A400000BFAE4204D104F11C01284600F044F836
:104A500000BF00BF0020BDE8F08110B5044604F19E
:104A60001C0000F01BF8002010BD00000FB438B58A
:104A700005A800907F210848009B049A01F0D0F817
:104A800004467F2C00D97F240348FFF71BFE00203B
:104A9000009038BC5DF814FBB42400204060006036
:104AA0007047406000607047406000607047026877
:104AB000516002680A600160486070470268516096
:104AC00002680A60016048607047026851600268CD
:104AD0000A600160486070474268116042684A603D
:104AE00041600860704701460868884201D1012092
:104AF00070470020FCE701460868884201D1012088
:104B000070470020FCE701460868884201D1012077
:104B100070470020FCE7014600200A4601E01268C9
:104B2000401C13688B42FAD17047D0E900215160D4
:104B3000D0E900121160406000607047D0E90021A8
:104B40005160D0E9001211604060006070470000C1
:104B50002DE9F041054615B90020BDE8F081E81CBB
:104B600020F003054E480068854201D90020F4E793
:104B70000C2D00D20C254FF0FF314A4800F0DEFB2F
:104B80004948006849490968461A7EE04748006874
:104B900084196088002874D106F10C006168081A35
:104BA000A8426ED306F10C006168091A05F11800DD
:104BB000814230D306F10C0000EB05083B48006849
:104BC00000EB08074FF4F5503880002078806068CB
:104BD0007860BE60C4F80480012060803048796845
:104BE00000680C30814205D0304978680968084473
:104BF000C0F808802E48016805F10C0008442C49D3
:104C000008602C4800680968884219D22848006862
:104C10002849086014E00120608024496068096820
:104C2000611A401A2249096808442149086021484C
:104C300000680968884203D21D4800681D49086061
:104C40004FF4F550208018480068844212D107E0E4
:104C50001548006840681549096808441249086009
:104C600011480068408828B10F4800681249096857
:104C70008842EDD10B4800F044FB04F10C006CE7D6
:104C8000FFE70A4800683044466805480068401B52
:104C9000B0423FF67BAF034800F033FB00205CE7F7
:104CA0005802002034250020540200204C0200202D
:104CB0005C02002060020020500200202DE9F0413B
:104CC00004460D4616461F46DDF818802A46052183
:104CD000204600F03BFA84F811802046FFF7BDFE25
:104CE0006662278500206085A085E08504F130009C
:104CF000FFF7D4FE0020BDE8F0812DE9F74304461C
:104D00000E46002700F09AFD0546FBF72DFA804677
:104D1000608D38B9029828B94046FBF729FAB81EC9
:104D2000BDE8FE833AE00020A863029830B940460F
:104D3000FBF71EFA6FF00100A863F1E7627C2946D9
:104D400004F11C00FFF753FE029800280CDD00F070
:104D500033FE074602AA002105F1540000F088FE48
:104D600005F1540000F0C8FE4046FBF701FA00F0E0
:104D700021FAA86B08B1A86BD2E7FBF7F5F98046DA
:104D8000029800280ADD00F017FEC71B0298C01B1E
:104D900002900298002801DA00200290608D00281D
:104DA000C1D0E18D606A50F821003060E08D401C78
:104DB000E085E08D218D884201DB0020E085608D5B
:104DC000401E608504F13000FFF78DFE50B904F1FC
:104DD0003000FFF7E9FD4046FBF7CAF900F0EAF9B9
:104DE00000209DE74046FBF7C3F9002098E72DE936
:104DF000F0410F46164604463D463346102B28D355
:104E000005F0030C04F003084CEA080CBCF1000F99
:104E10001FD121462A4610E052F804CB41F804CBBA
:104E200052F804CB41F804CB52F804CB41F804CB40
:104E300052F804CB41F804CB103B102BECD204E029
:104E400052F804CB41F804CB1B1F042BF8D20C46BC
:104E5000154603E015F801CB04F801CBB3F1000CC3
:104E6000A3F10103F6D1BDE8F08170B50C4601460F
:104E700023468B4210D29D188D420DD91144134404
:104E800005E05D1E2B462E784D1E29462E70151E00
:104E9000A2F10102F5D108E003E013F8015B01F88B
:104EA000015B151EA2F10102F7D170BDF0B50C46F1
:104EB0000546E6B2042A15D300F0030797B9014668
:104EC00046EA062343EA034304E008C108C108C1D7
:104ED00008C1103A102AF8D201E008C1121F042AB2
:104EE000FBD20D4601E005F8016B171EA2F101028D
:104EF000F9D1F0BD2DE9F0470746884691469A461C
:104F00003946062000F0C2F8044614B92046BDE830
:104F1000F08784F811A02046FFF79FFD08F10300F9
:104F200020F003002085A4F82A90218D091D628DB0
:104F300001FB02F0FFF70CFE6062606A20B92046B8
:104F400000F018F80020E2E7002020636063A0630F
:104F5000002508E0208D001D616A05FB0016A06B8E
:104F60003060A6636D1C608DA842F3DC0020A08534
:104F70002046CCE710B5044604F11C00FFF71EFDE7
:104F8000606AFFF7E3FA204600F0AAF8002010BD9F
:104F90002DE9FF4704460F4690464FF0000900F008
:104FA0004DFC0546FBF7E0F88246A08D48B9039812
:104FB00038B95046FBF7DCF86FF0010004B0BDE8EB
:104FC000F0873CE00020A863039830B95046FBF717
:104FD000CFF86FF00100A863F0E7627C294604F186
:104FE0001C00FFF704FD039800280CDD00F0E4FC32
:104FF000814603AA002105F1540000F039FD05F1B6
:10500000540000F079FD5046FBF7B2F800F0D2F8FA
:10501000A86B08B1A86BD1E7FBF7A6F88246039806
:1050200000280CDD00F0C8FCA0EB09090398A0EBF8
:10503000090003900398002801DA00200390A08D56
:105040000028BFD0266B30682063606BB04201D16E
:1050500000206063A08D401EA0855046FBF788F8B5
:10506000208D404501D2208D00E040460246311D92
:105070003846FFF7BCFEFBF777F88246A06B30603E
:10508000A6635046FBF774F8002097E72DE9F0413E
:1050900006460F46304600F045F80546E868FFF73B
:1050A00057FD044614B90020BDE8F08100212046D8
:1050B000EA68FFF7FBFE2674002060741022394670
:1050C000204600F0D6F9FBF74FF8804604F11401B2
:1050D000281DFFF7ECFC4046FBF74AF82046E3E7C3
:1050E00070B5044600202074FBF73EF8054604F135
:1050F0001400FFF71AFD2846FBF73AF82046FFF7A1
:1051000025FA70BD70B5044600202074FBF72CF81A
:10511000054604F11400FFF708FD2846FBF728F8C0
:1051200070BD0000024600210AE0074800EB0110B4
:105130000078904203D1044800EB01107047491CED
:105140000729F2DB0020F9E7640200202DE9F0478F
:1051500004460D46904600262846FFF7E3FF074623
:10516000FFF7C2F97E6802E0A6F114003668381D28
:105170008642F9D1FFF7C8F945F08000207410226B
:105180004146204600F075F9FAF7EEFF814604F13A
:105190001401381DFFF78BFC4846FAF7E9FFBDE81C
:1051A000F0870146087C00F0800008B101207047BC
:1051B0000020FCE72DE9F041FAF7D6FF0746184832
:1051C000008838BB17480068FDF78EF9461E164860
:1051D00050F83600A0F11C0414480068844218D02E
:1051E00013490E701148056804601248007850B9E0
:1051F00004F1240105F12400FAF7BDFF3846FAF75F
:10520000B7FFBDE8F08104F1240105F12400FAF7AD
:10521000B2FF00BF3846FAF7ABFF00BFF1E700006E
:10522000D4020020E00200205C250020D8020020EB
:10523000DC0200204802002070B50446FAF794FF13
:10524000054614F83C0F20F00F0040F001002070DC
:1052500062783C3C0A4B03EBC20004F11C0142683B
:10526000116042684A604160086000BF0549206CD7
:1052700009680843034908602846FAF779FF70BDBA
:105280005C250020E002002070B50446FAF76CFFB0
:10529000054604F11C00D0E900215160D0E900125C
:1052A00011604060006000BF94F83D10094A02EBB5
:1052B000C1000168814201D1012100E0002129B132
:1052C0000548216C00688843034908602846FAF7BE
:1052D0004FFF70BD5C250020E00200202DE9F04169
:1052E00004460D4616461F462A4602212046FFF771
:1052F0002DFF2046FFF7B1FBA68467740020BDE8B0
:10530000F08170B504460025FAF72EFF064604F139
:105310001C00FFF7E8FB28B904F11C00FFF744FB71
:10532000012502E0A08C401CA0843046FAF720FF43
:10533000012D01D1FFF73EFF002070BD73B505467A
:10534000FAF712FF0646A88C002806DDA88C401E3E
:10535000A8843046FAF70CFF28E0019828B93046B7
:10536000FAF706FF6FF001007CBD00F067FA044613
:105370000020A0636A7C214605F11C00FFF737FB83
:105380000198002809DD01AA002104F1540000F071
:105390006FFB04F1540000F0AFFB3046FAF7E8FE73
:1053A000FFF708FFA06B08B1A06BDDE70020DBE78B
:1053B00008B509A0FFF75AFB0AA0FFF757FB12A098
:1053C000032301221946009012A0FFF74FFB19A0FA
:1053D000FFF74CFB08BD00000A205C207C202F0A50
:1053E000000000002D205254202D20202020205489
:1053F0006872656164204F7065726174696E6720C0
:1054000053797374656D0A004A756C203238203206
:1054100030323100202F207C205C202020202025CD
:10542000642E25642E2564206275696C64202573C2
:105430000A0000002032303036202D203230313941
:1054400020436F7079726967687420627920727482
:105450002D746872656164207465616D0A000000D6
:1054600001460A4600E0521C10780028FBD1501A71
:10547000704770B50346A2B118460C4600BF14F839
:10548000016B00F8016B3EB902E0002500F8015BFA
:10549000551E2A1EF9D102E0551E2A1EEFD100BF6B
:1054A00000BF184670BD00002DE9F04105460E46CC
:1054B000E81C20F0030726F00308B8F1180F09D9FB
:1054C000A8F11800B84205D3A8EB070018381E4908
:1054D000086006E0324629461CA0FFF7C7FABDE87F
:1054E000F0812948076004684FF4F5502080164881
:1054F00000680C3060600020A06060802249606815
:1055000009680844214908604FF4F550096808808B
:1055100001201E49096848800B4800680C301B496F
:1055200009684860084800680C30184909688860B4
:105530000023012216A11848FFF7D0FE1248006888
:105540001649086000BFCAE7580200206D656D204B
:10555000696E69742C206572726F7220626567696A
:105560006E206164647265737320307825782C2016
:10557000616E6420656E642061646472657373207B
:10558000307825780A0000004C02002050020020EC
:10559000686561700000000034250020540200207E
:1055A00010B500200B490880002405E00A4901EBF2
:1055B000C400FFF776FA641C202CF7DB1F20074994
:1055C0000870002006490860064908600648FFF791
:1055D00068FA10BDD40200205C250020DC02002007
:1055E000D8020020E0020020E402002070B5084844
:1055F0000068FCF779FF451E064850F83500A0F119
:105600001C040548046004F12400FAF7E2FD70BDB3
:10561000E00200205C250020D802002010B5002404
:1056200005E0044901EBC400FFF73EFA641C002CBE
:10563000F7D010BDEC02002070472DE9FF5F064651
:105640000F4690461D46DDE90EAB31460120FFF7BF
:105650001DFD8146B9F1000F03D1002004B0BDE863
:10566000F09F2846FFF774FA044624B94846FFF72E
:1056700037FD0020F2E743463A46314648468DE87A
:10568000300CFCF7A7FF4846E8E7000070B5134868
:105690000468FAF769FD05462046FFF7F5FD04208A
:1056A00084F83C0004F1540000F0FEF92046FFF7B6
:1056B00078FD012806D1D4F8880018B92046FFF7F4
:1056C00021FD04E004F11C010548FFF7F7F9284625
:1056D000FAF74EFDFFF76EFD70BD0000D802002006
:1056E000E402002001E000F001F8FCE770B53CE0C6
:1056F000FAF73AFD0546FCF72DFF40B31E48006857
:10570000A0F11C0404F11C00D0E900215160D0E993
:10571000001211604060006000BFFEF7E5FED4F8A3
:10572000880018B12046D4F8881088472046FFF733
:1057300038FD012808D12046FFF7E4FCFEF7E4FE1F
:105740002846FAF715FD70BDFEF7DEFE03E0284699
:10575000FAF70EFDF7E72846FAF70AFD206BFEF789
:10576000F5FE2046FFF7BCFC00BFFCF7F3FE002867
:10577000BED100BFE7E70000E40200201FB52020F3
:105780001F21C200074BCDE90032CDE902100023F2
:10579000054A06A1074800F00FF8064800F076F821
:1057A0001FBD0000B4230020E55600087469646C36
:1057B00065000000242300202DE9FF5F05460C460C
:1057C00016461F46DDE910ABDDE90E8922460121B0
:1057D0002846FFF7BBFC3B463246214628468DE86B
:1057E000000FFCF7F7FE04B0BDE8F09F70B504466B
:1057F000204600F0C5F80546284600F025F870BDA3
:1058000070B5044694F83C0000F00F00022802D066
:105810004FF0FF3070BDFAF7A7FC054604F11C00FD
:10582000FFF78CF904F1540000F0E2F92846FAF78A
:105830009FFC2046FFF700FD0020EBE701480068D1
:1058400070470000D802002031B5FAF78DFC0546FC
:105850000D480468204600F02FF86A46002104F144
:10586000540000F005F904F1540000F045F9284611
:10587000FAF77EFCFFF79EFCA06B801C08B90020A5
:10588000A063002038BD0000D802002010B50446F7
:105890003C34A0786070617801208840606002200C
:1058A00004F83C092046FFF7ABFFFFF7C7FF08B13C
:1058B000FFF780FC002010BD70B5044694F83C0052
:1058C00000F00F00012802D04FF0FF3070BDFAF752
:1058D0004BFC054694F83C0020F00F0040F002001D
:1058E00084F83C002046FFF7CFFC04F1540000F0A0
:1058F0007FF92846FAF73CFC0020E7E770B504463C
:1059000025466FF00100A86305F11C00FFF716F9AA
:105910002846FFF791FCFFF74DFC70BD70B5FAF714
:1059200023FC05461448046894F83C0000F00F007E
:1059300001281CD1D4E90710814218D004F11C00C1
:10594000FFF7FCF894F83D200C4B03EBC20004F188
:105950001C014268116042684A604160086000BFF3
:105960002846FAF705FCFFF725FC002070BD284605
:10597000FAF7FEFB0020F9E7D80200205C250020A2
:105980000146002902DA4FF0FF3014E04FF47A723A
:1059900091FBF2F24FF47A7302FB03F01A4691FB8B
:1059A000F2F302FB13124FF47A735A4302F2E73216
:1059B00092FBF3F210447047014800687047000002
:1059C0004402002010B50A480068401C08490860DD
:1059D000FFF734FF0446206D401E2065206D18B986
:1059E000E06C2065FFF79AFF00F004F810BD00009E
:1059F0004402002070B5FFF7DFFF0546FAF7B4FB5D
:105A0000064628E019480068A0F11C04206B281AFB
:105A10006FF0004188421DD22046FCF73EFED4E9DB
:105A200009108847FFF7C8FF0546607C00F00200B8
:105A300058B1607C00F0010038B1607C20F00100BA
:105A40006074204600F058F805E0607C20F001000A
:105A5000607400E004E00548FFF74DF80028D1D05D
:105A600000BF3046FAF784FB70BD0000EC02002056
:105A7000034649B1012904D0022908D0032910D1D5
:105A80000AE0D86A10600CE01068D86209E0587C1F
:105A900020F00200587404E0587C40F00200587472
:105AA00000BF00BF0020704770B50446FAF75CFBEA
:105AB00005462046FCF7F1FD2846FAF759FB20463B
:105AC000FFF720FB002070BD2DE9F84307460C4688
:105AD00015461E46DDE9088922460A213846FFF7A9
